:020000040800F2
:10000000786100209D020008D53C00088136000878
:10001000153C0008990C000865530008000000001A
:10002000000000000000000000000000214A00085D
:100030000513000800000000813D00080D4C000879
:10004000B7020008B7020008B7020008B7020008AC
:10005000B7020008B7020008B7020008B70200089C
:10006000B7020008B7020008B70200088D120008A6
:1000700099120008A5120008B1120008BD1200086C
:10008000C9120008D5120008B7020008A90C000820
:100090009D0C0008B7020008B7020008B70200086C
:1000A000B7020008E94C0008B7020008B7020008D0
:1000B000B7020008B7020008B7020008B70200083C
:1000C000B7020008B7020008B7020008B70200082C
:1000D000B7020008B7020008415300084D5300085A
:1000E000B7020008B7020008B7020008B70200080C
:1000F000B7020008B7020008B7020008E1120008C2
:10010000B7020008B7020008B7020008B7020008EB
:100110004D4F0008594F0008B7020008B702000809
:10012000B7020008ED120008B7020008B702000885
:10013000B7020008B7020008B7020008C10C0008A7
:10014000B7020008B50C0008B7020008B7020008A3
:10015000B7020008F9120008B70200085953000856
:10016000B7020008B7020008B7020008B70200088B
:10017000B7020008B7020008B7020008000000003C
:10018000B7020008B702000800F002F800F076F8A5
:1001900014A696E8000CB244B344DA4501D100F04D
:1001A0006DF8BAE80F000FA696E83000A5EB04053D
:1001B00004EB0607AAEB0704A7F101074FEA1515A0
:1001C0004FEA3414A4F10104AC4201D300F056F814
:1001D00013F0010F18BFFB1A43F0010300F001F800
:1001E000DBE7184728800000488000000A444FF0F1
:1001F000000C10F8013B13F0070408BF10F8014B86
:100200001D1108BF10F8015B641E05D010F8016BCA
:10021000641E01F8016BF9D113F0080F1EBF10F82E
:10022000014BAD1C0C1B09D16D1E58BF01F801CB51
:10023000FAD505E014F8016B01F8016B6D1EF9D5D4
:100240009142D6D37047000070470000002300247D
:1002500000250026103A28BF78C1FBD8520728BFD6
:1002600030C148BF0B6070471FB507F084FF9DE8A1
:10027000030000F0B7F91FBD10B510BD00F040FA43
:100280001146FFF7F1FF05F089F900F05EFA03B4BB
:10029000FFF7F2FF03BC00F08FFA00000948804727
:1002A00009480047FEE7FEE7FEE7FEE7FEE7FEE758
:1002B000FEE7FEE7FEE7FEE704480549054A064B70
:1002C00070470000D54C000889010008785B0020C9
:1002D00078610020785D0020785D002070B50646CA
:1002E00000F064F9056806F10B0020F00704B44241
:1002F0009CBF002070BD2B466A68BAB11068A0424E
:1003000010D304F1080188423CBF5068586007D3FD
:100310005168101941601168091B01605860146030
:10032000101D70BD13465268002AE7D121462846A9
:1003300000F044F90028DED170BD70B50446051FF9
:1003400000F034F90068002C14BF446870BD002C24
:1003500018BFAC423CBF20466468F8D301680A1855
:10036000AA4218BF456003D12A68054611440160BE
:1003700028684119A1421CBF6C6070BD616869604A
:1003800021680844286070BD53EA020C00F06980BF
:100390002DE9F04B4FF00006002B1FBFB3FA83F599
:1003A00003FA05F424FA05F65E4012BF1643B2FACA
:1003B00082F502FA05F4C5F120051EBF22FA05FCFC
:1003C00044EA0C04203556EA044C4FEA144418BFA2
:1003D000641C4FF000084FF00009904271EB030CD1
:1003E00039D3002919BFB1FA81F701FA07F6B0FA3B
:1003F00080F700FA07F6C7F120071EBF20FA07FCB6
:1004000046EA0C062037B6FBF4FCA7EB0507103FC5
:1004100007F01F0BCBF120062CFA06F60CFA0BFBAB
:1004200044BFB3460026202FA4BF5E464FF0000B0A
:100430005BEA060C08BF4FF0010B19EB0B0948EB08
:100440000608ABFB027C06FB02CC0BFB03CCC01BFB
:1004500071EB0C01C1E70B46024641464846BDE838
:10046000F08B13B5084318BF4FF0FF300146AFF3D0
:100470000080BDE81C407047032A40F2308010F035
:10048000030C00F0158011F8013BBCF1020F62442F
:1004900098BF11F801CB00F8013B38BF11F8013BC0
:1004A000A2F1040298BF00F801CB38BF00F8013B6D
:1004B00011F0030300F0CB80083AC0F0088051F837
:1004C000043B083A51F804CBA0E80810F5E7121DE8
:1004D0005CBF51F8043B40F8043BAFF30080D20707
:1004E00024BF11F8013B11F801CB48BF11F8012BD3
:1004F00024BF00F8013B00F801CB48BF00F8012BF6
:10050000704702F0FF0343EA032242EA024200F08E
:1005100024B84FF000020429C0F0128010F0030C40
:1005200000F01B80CCF1040CBCF1020F18BF00F8E6
:10053000012BA8BF20F8022BA1EB0C0100F00DB895
:100540005FEAC17C24BF00F8012B00F8012B48BFF3
:1005500000F8012B70474FF0000200B51346944697
:100560009646203922BFA0E80C50A0E80C50B1F10B
:100570002001BFF4F7AF090728BFA0E80C5048BF1F
:100580000CC05DF804EB890028BF40F8042B08BFBD
:10059000704748BF20F8022B11F0804F18BF00F8B9
:1005A000012B704770477047704700000048704744
:1005B00030020020704770477047704738B50446D6
:1005C0000A4600206946AFF30080002808BF38BD06
:1005D00002460099204600F071F8012038BD012044
:1005E00000F086B8F8B5AFF30080054600200C4651
:1005F0000C2000BF0646A819A0420DD93246694614
:100600000020AFF30080070008BF00F071F80098E9
:10061000A04218BF0546C419FFF7C8FF056007468A
:10062000F01D20F007004619284600F00AF8B442F1
:1006300008BFF8BDA21B31463868BDE8F84000F09D
:100640003DB800210160416070470C20704710B533
:10065000203AC0F00B80B1E81850A0E81850B1E87B
:100660001850A0E81850203ABFF4F5AF5FEA027CBA
:1006700024BFB1E81850A0E8185044BF18C918C0EA
:10068000BDE810405FEA827C24BF51F8043B40F88B
:10069000043B08BF7047D20728BF31F8023B48BF70
:1006A00011F8012B28BF20F8023B48BF00F8012BAE
:1006B0007047000000487047280200200346406849
:1006C0008C46002818BF88423CBF03464068F8D3D8
:1006D00018681844884207D00CF1030020F0070086
:1006E000001D411A521A0146081D0A60FFF725BE77
:1006F00010B500F039F8BDE8104000F02FB8704791
:100700007546FFF7D7FFAE4605006946534620F011
:100710000700854618B020B5FFF7CEFDBDE82040A4
:100720004FF000064FF000074FF000084FF0000BAD
:10073000AC46ACE8C009ACE8C009ACE8C009ACE81C
:10074000C00921F007018D46704710B50446AFF38C
:1007500000802046BDE81040FFF799BD002801D079
:1007600000F02AB87047000010B5012805D000211C
:1007700003A000F027F8012010BD09A1F8E7000050
:1007800053494752544D454D3A204F7574206F667A
:100790002068656170206D656D6F727900000000E2
:1007A0003A2048656170206D656D6F727920636FC6
:1007B000727275707465640001491820ABBEFEE763
:1007C0002600020070B505460C460A2000E06D1CAC
:1007D00000F011F835B128780028F8D102E0641C47
:1007E00000F009F814B120780028F8D1BDE8704075
:1007F0000A20AFF3008008B569468DF80000032099
:10080000ABBE08BD88B006F02FFF41F2E85541F2BB
:10081000684741F2EC6BC2F20005C2F20007002407
:10082000C2F2000B0DF1040A07900DE041F2E85509
:10083000C2F20005286800210022002306F0AAFA6F
:1008400007A8042105F05EFE28684FF0FF3106F08E
:10085000DBFC00F093FA44F6D351C1F26201A0FB35
:1008600001018E094FF000080BE0D9E906200021B4
:10087000904789F8104000BF08F13008B8F5C07FF4
:10088000D4D007EB080999F810000028F4D0D9E972
:100890000201321A57F8080064EB0101121A71F1D3
:1008A0000001E9DB99F828100029DED099F8222010
:1008B000D9E906358DF80620D9F8242001390292AD
:1008C000B9F820200490DBF8000005938DF80C1097
:1008D000ADF80420514600220023069506F05AFA8E
:1008E000012808BF89F81040C6E7000082B040F236
:1008F000004641F28830C4F2020605F0ADFD40F238
:10090000A02540F2D877C2F20005C2F200072846BF
:1009100039460122032303F065FE40F20834C2F297
:100920000004204639460222032303F05BFE6420C4
:1009300005F092FD2846002104F052F820460021DF
:1009400004F04EF8642005F087FD284603F030FEE1
:10095000204603F02DFE642005F07EFD284604F0BD
:1009600023F8204604F020F8642005F075FD28697E
:1009700040F22401C2F200014860206940F24C01BB
:10098000C2F20001486006F06FFE40F6BC5B40F624
:10099000BD5840F6BE5740F2AC3440F288259FED7A
:1009A000BCDA9FEDBC8AC2F2000BC2F2000806F569
:1009B000806AC2F20007C2F20004C2F20005019090
:1009C00034E040F21000C2F20000D2ED060AD0ED91
:1009D000031A90ED042A40F2A020C2F20000012187
:1009E000B0EE480AB0EE481A03F002FE40F23800BA
:1009F000C2F20000D9ED060AD0ED031A90ED042AE8
:100A000040F20830C2F200000221B0EE480AB0EE17
:100A1000481A03F0EDFD4FF4967005F01DFD01201E
:100A2000287000BF01A8022105F06CFD30464FF48C
:100A3000805101F085FB8BF8000030464FF40051E7
:100A400001F07EFB88F800005046042101F078FB9D
:100A500038705046082101F073FB9BF80010012903
:100A600008D098F80010012904D03978012901D064
:100A7000012801D101202070287888B941F25071F5
:100A8000C2F20001097859B920780128CAD103209F
:100A9000287041F25070C2F2000001210170C1E7DC
:100AA000012800F0A48002284DD00328BAD140F2DA
:100AB000A020C2F2000090ED049A90ED05AA40F249
:100AC000100040F21429C2F20000C2F2000990EDB9
:100AD00001BA99ED00CA06F0C7FD014641F2F06087
:100AE000C2F20000B0EE490AF0EE4A0AB0EE4B1A2C
:100AF000F0EE481AB0EE4C2A00F076FB40F20830D7
:100B0000C2F2000090ED049A90ED05AA40F2380080
:100B1000C2F2000090ED01BA99ED00CA06F0A4FD02
:100B2000014641F22070C2F20000B0EE490AF0EE38
:100B30004A0AB0EE4B1AF0EE481AB0EE4C2A00F01A
:100B400053FB02206CE741F22079C2F2000941F226
:100B5000F06299F82000C2F2000292F82010C0B2B0
:100B600008433FF42EAF914606F07EFD014648460D
:100B700041F21479C2F200094A4600F0D3FA06F0B5
:100B800073FD014641F2207041F24472C2F200004E
:100B9000C2F2000200F0C6FA40F21000C2F20000F9
:100BA000D9EC020A90ED000AD0ED031A90ED042A68
:100BB00040F2A020C2F20000012103F019FD41F231
:100BC0004470C2F20000D0EC020A40F23800C2F2D7
:100BD000000090ED000AD0ED031A90ED042A40F2D7
:100BE0000830C2F20000022103F002FD1AE75C4661
:100BF000C34640F22408C2F2000840F2A02998EC53
:100C0000050AC2F200094846012103F0F1FC40F256
:100C10004C00C2F2000090EC050A40F20830C2F22B
:100C20000000022103F0E4FC99ED040A98ED011A9A
:100C3000D84630EE410AB0EEC00AA34640F2AC34CA
:100C4000B4EE4D0AC2F20004F1EE10FABFF6EAAEBD
:100C500040F20830C2F2000090ED040A40F24C006D
:100C6000C2F2000090ED011A30EE410AB0EEC00A67
:100C7000B4EE4D0AF1EE10FABFF6D4AE41F2507167
:100C80000020C2F20001287008702070CAE600BF80
:100C90008FC2F53C00000000FEE7000040F2D87073
:100CA000C2F2000000F092BC40F2D870C2F2000024
:100CB00000F08CBC40F60000C2F2000000F086BCE0
:100CC00040F60000C2F2000000F080BC10B588B011
:100CD0000B4600210791CDE90511CDE90311CDE9BE
:100CE0000111016846F2004201ACC4F20002891A07
:100CF000224618BF012100F0DBFB0398002818BF33
:100D00000434206808B010BD80B588B0029100217D
:100D10000823CDE90311059106938DF81C1001916C
:100D200002A901AB00F008FB08B080BD80B58AB015
:100D300001220792026846F20043C4F20003002138
:100D40009A424FF00E030691CDE90011CDE9021150
:100D5000099308D046F60001C4F200018A4205D189
:100D600001220E2100E00022CDE904210121089199
:100D7000694600F02BFB0AB080BD000006F074BC91
:100D8000F0B583B048B340F2B034C2F20004054677
:100D900020464FF48461FFF7DEFB0120002103228F
:100DA000256005F047FFC4F814040A204FF4817150
:100DB000002205F03FFFD4F81414C4F810040029F1
:100DC00018BF00280DD111B1084605F0FDFAD4F87E
:100DD0001004002818BF05F0F7FA0024204603B0DD
:100DE000F0BD40F2D47740F66170C2F2000704F221
:100DF0000C450626C0F600000AA14FF400722346F7
:100E00003C60CDE9006506F031FB0128E6D0D4F85E
:100E1000140405F0D9FAD4F8100405F0D5FA00242A
:100E20003C60DBE7436F6D6D547800002DE9F04FB7
:100E300085B000284FF0FF34029300F08D800D46FE
:100E4000002900F089809346002A00F0858007463B
:100E500006F00AFC0190381D04900298002401302D
:100E60004FF00009039000BF05F0A6F9B7F8086439
:100E7000E6B3ABEB0900B7F8061480B2B04238BF56
:100E80000646C1F580601FFA80FAB046B245B7F851
:100E9000060438BFD04604992C44014420464246FB
:100EA000FFF7EAFAB7F80604564540446FF39F206F
:100EB000A7F8060413D9B7F80614049BAA46A6EBB4
:100EC0000805AAB204EB08001944FFF7D5FAB7F8F1
:100ED0000604284455466FF39F20A7F80604B7F888
:100EE0000804801BA7F8080401E000BF002605F0F5
:100EF00087F91EB1B144022022E000BF0398B0B1CF
:100F000006F0B2FB0199401A0299081A4FF47A715F
:100F100001FB00F044F6D351C1F26201A0FB0102D3
:100F20004FF0FF3188BF910903D8012008E04FF04E
:100F3000FF31D7F8140406F067F9013818BF012013
:100F400040F00200022805D11FFA89F45C45FFF445
:100F50008BAF01E04FF0FF34204605B0BDE8F08FC5
:100F6000F0B5C1B050B3044606F064FB0DF10205C4
:100F700001260027C4F818040CE000BF84F81C64A4
:100F80002068BDF80221294602F02CFB002818BF7A
:100F900084F81C74D4F8100429464FF0FF3206F090
:100FA0005FF80128F6D100BF94F81C040028E5D0B2
:100FB00001204FF0FF3105F023F8F5E7002041B0A4
:100FC000BDE8F04005F016BB2DE9F04782B00027E0
:100FD0000028019718BF002902D102B0BDE8F087B0
:100FE000002AFAD0002BF8D007688F42F5D1EFF332
:100FF00011884FF0500181F31188BFF36F8FBFF359
:101000004F8FB0F80814C1F580618FB2BB4213D97D
:10101000591AB0F808748EB2BE4288BFB0F80814EE
:10102000B0F806740F446FF39F27A0F80674B0F869
:101030000874791AA0F80814B0F804141C46C1F515
:1010400080618EB29E4238BF3446B0F80414051D4C
:101050002944824608469146114622461F46FFF71C
:101060000BFABAF804243946224450466FF39F2203
:10107000B742AAF8042411D9B0F804040E1BB2B286
:10108000284409EB0401FFF7F7F9BAF804243946BC
:10109000324450466FF39F22AAF80424B0F8082483
:1010A0001144A0F8081488F31188D0F8140410B182
:1010B00001A905F079FF019800288ED04EF6045062
:1010C000CEF200004FF080510160BFF34F8FBFF3AD
:1010D0006F8F02B0BDE8F087F0B1A2F2011313F5F3
:1010E000807F19D3C1B10368002B08BF7047B0B52A
:1010F000C2B001AB054618461446FFF7BDF9D5F856
:101100001004ADF8044120B101A90022002305F02C
:1011100041FE42B0BDE8B0407047000003F0C2F9A4
:10112000FCE7000090F8203013B1C369994208D25F
:10113000806900219FED2B0AC2E9000182ED020ABD
:101140007047C91A00EE101A9FED251AB8EE400A32
:1011500090ED042A20EE010AB4EE420AF1EE10FAF4
:1011600038DA90ED033A90ED024A20EE035A90ED02
:10117000012A20EE055A20EE046A20EE066A25EECA
:10118000005A90ED001A35EE065A22EE006A36EE4D
:10119000055A31EE051A82ED001AB0EE081A23EE58
:1011A000011A20EE011A34EE044A20EE045A21EE10
:1011B000001A31EE051A32EE011A82ED011AB1EE73
:1011C000081A23EE011A21EE000A30EE040A82ED1D
:1011D000020A7047002180F820108069AAE700BF4A
:1011E0006F12833A000000009FED253A9FED254ADB
:1011F000B4EE432AF1EE10FAB8BFB0EE432A9FEDE9
:10120000223AF4EE441AF1EE10FAC8BFF0EE441A96
:10121000F4EE431A30EEA04AF1EE10FAB8BFF0EE49
:10122000431A31EE403A34EE214AB0EE085A24EE29
:10123000024A23EE053A30EE415A30EEA16A33EE0F
:10124000443A22EE024A22EE066A35EE055A83EE51
:10125000043A35EE065A22EE044A85EE044AC1618C
:10126000012180ED042A80ED050A80ED061A80F840
:10127000201080EC020A80ED023A80ED034A7047AC
:10128000CDCC4C3D48E1494248E149C240F6E80036
:10129000C2F2000000F0D6BC40F66820C2F20000A6
:1012A00000F0D0BC40F62800C2F2000000F0CABC3A
:1012B00040F6C820C2F2000000F0C4BC40F688002E
:1012C000C2F2000000F0BEBC40F6A810C2F200005E
:1012D00000F0B8BC40F60820C2F2000000F0B2BC3A
:1012E00040F64810C2F2000000F0ACBC40F62830D6
:1012F000C2F2000000F0A6BC40F68830C2F2000046
:1013000000F0A0BC7047000072B600BFFEE700000E
:1013100090F82020013A012A04D8006800F1140254
:10132000002004E000F1240201204FF48021136822
:10133000194311607047000010B590F820E0D0F814
:1013400000C0AEF1010EBEF1010FDCF808E011D8CB
:101350001EF0E05F14D0CEF301640120A0401860BD
:101360008B689BB1D1F804E0C86840EACE0040EA3F
:10137000030E0FE000F1240301204FF4802121E04F
:1013800000F1240301204FF400111BE00868CB6832
:1013900043EA405E0CF5C07000EB0413240140F8F2
:1013A00004E00C69184640F8044F097D012903D177
:1013B000016841F48071016050680121D8601068B3
:1013C000986000201A681143196010BD90F8202021
:1013D000013A012A30D8B0B546F20060C4F20000EC
:1013E000026842F001020260026822F47C5202604C
:1013F000D1F814E0CC694A6A0368012C43EA02225E
:1014000002600EF01F024FF0010303FA02F2C369FB
:101410006FEA020C23EA0203C36113D02CBBC3683A
:1014200003EA0C03C360CB688C8844EA034300EBF7
:10143000CE0423640B4611E0416A41F480214162ED
:1014400001207047C3681343C3600B688C8844EA6B
:10145000034300EBCE04236401F10C038C681B886A
:1014600043EA044300EBCE04636443688D6943EAB6
:101470000204D1F810E0096A002D08BF03EA0C0449
:1014800044604369BEF1000F43EA020408BF03EA67
:101490000C040129446102D1C1691143C161016891
:1014A00021F0010101600020B0BD00007047000084
:1014B000B0B590F82040013C012C78D80468002990
:1014C0000CBFE4682469A40777D004684FEA011CC4
:1014D00004F5D87555F80C4014F00404946055F8E0
:1014E0000CE005EB011C19BF4FEADE0555604FEA21
:1014F0005E551560DCF80050E64605F00205D56043
:101500005EF8044F24075ABFDEF8004004F00F04D1
:1015100008241461DEF800400029C4F30724946114
:10152000DEF800504FEA15455561DCF808201A70C6
:10153000026802EB0112D2F8B8214FEA12225A7067
:10154000026802EB0112D2F8B8214FEA12429A70F7
:10155000026802EB0112D2F8B8214FEA1262DA7087
:10156000026802EB0112D2F8BC211A71026802EB88
:101570000112D2F8BC214FEA12225A71026802EB22
:101580000112D2F8BC214FEA12429A71026802EBB2
:101590000112D2F8BC214FEA1262DA7100680CBF66
:1015A00000F10C0100F11001002020220AE000F1FE
:1015B000240101204FF4802204E000F124010120E5
:1015C0004FF400120B681A430A60B0BD2DE9F04FCA
:1015D00081B0044600684669D0F804908768D0F866
:1015E0000CB0D0F810A0D0F81880F10703D1002576
:1015F00030071CD423E0F90710D00121BA0781601D
:1016000009D4780700F1AA80380700F1B08020469D
:1016100000F0B8FA02E0204600F0B6FA0025F8051E
:1016200000F18480F80300F1AA80300707D51BF091
:10163000100004D0206845F400751021C1607007C7
:1016400008D51BF0080005D020680821C16020469D
:1016500000F0ECF9B00706D52068C068800702D01A
:10166000204600F0E5F9700607D51AF0100004D006
:10167000206845F4806510210161B00608D51AF094
:10168000080005D0206808210161204600F018FA02
:10169000F00606D520680069800702D0204600F0D9
:1016A00011FAB00308D519F0100005D020681021F8
:1016B0004160204600F036FAF00308D519F0080022
:1016C00005D0206808214160204600F067FA300408
:1016D00040F18F805FEA497040F1888006F48070A5
:1016E00008EA102028435FEA8871014648BF41F0AC
:1016F0000201B20558BF01465FEA48700D4648BF77
:1017000045F00405700558BF0D4630056ED518F03C
:1017100070006BD010380009052862D8DFE800F0AF
:10172000035C5659535F45F008055AE020684FF4B2
:101730008071BA0581600AD4780512D4380519D4AD
:10174000204600F023FAF8037FF56FAF17E020463C
:1017500000F01EFAF8037FF568AF10E04FF4006563
:101760005DE705F50055F8037FF55FAF07E04FF43F
:10177000805554E705F58045F8037FF556AF20689E
:101780004FF48031BA0381600AD478030FD4380350
:1017900013D4204600F0FEF930073FF548AF4EE77E
:1017A000204600F0F9F930073FF541AF47E705F56E
:1017B000004530073FF53BAF41E705F58035300781
:1017C0003FF535AF3BE745F080050AE045F02005E1
:1017D00007E045F0400504E045F0100501E045F460
:1017E00080752068816921F0700181612068042181
:1017F00041604DB1606A40EA05012046616201B076
:10180000BDE8F04FFFF752BE01B0BDE8F08F000019
:10181000002804BF01207047B0B5044690F82000AE
:1018200010B9204600F06EF82068016841F001010F
:10183000016000F091FC054620684168C90705D1A8
:1018400000F08AFC401B0B28F6D310E0016821F061
:101850000201016000F080FC054600BF206841687D
:1018600089070DD500F078FC401B0B28F6D3606A81
:10187000052140F400306062012084F82010B0BDE2
:10188000217E0268012922F0800208BF80320260B6
:10189000617E0268012922F0400208BF40320260E6
:1018A000A17E0268012922F0200208BF20320260D6
:1018B000E17E0268012922F0100218BF1032026096
:1018C000217F0268012922F0080208BF0832026065
:1018D000617F0268012922F0040208BF043202601D
:1018E000D4E901C2D4E9033561691A432A4311439B
:1018F000ACF101021143C16100200121606284F852
:101900002010B0BDB0B586B0006846F60002C4F243
:10191000000200219042CDE90411CDE902110191AC
:101920002FD046F20041C4F2000188427BD140F240
:101930009421C2F200010A6843F64000C4F202009A
:10194000531C0B6052B900210091016841F00071F5
:101950000160016801F0007100910099002100917F
:1019600050F8101C142441F0020140F8101C50F8EB
:10197000100C132500F00200009000984FF4407006
:1019800031E043F64000C4F202000091016841F0EA
:1019900080610160016801F080610091009940F26E
:1019A0009421C2F200010A68531C0B6052B9002155
:1019B0000091016841F000710160016801F000715F
:1019C000009100990021009150F8101C412441F031
:1019D000020140F8101C50F8100C3F2500F00200E6
:1019E0000090009860200190022002900020039057
:1019F000032004900920059040F20040C4F2020048
:101A000001A900F0D3FA28460521002200F05EFC6F
:101A1000284600F049FC20460521002200F056FC33
:101A2000204600F041FC06B0B0BD00007047000049
:101A3000006846F20041C4F20001884218BF7047B6
:101A400080B582B00020CDE9000040F2D870C2F22B
:101A500000006946FFF73AF940F2032188421DD0A1
:101A600002280ED0012826D140F2A02040F2D871E1
:101A7000C2F20000C2F200016B46012202F0C4FE75
:101A800019E040F2083040F2D871C2F20000C2F210
:101A900000016B46022202F0B7FE0CE040F2640047
:101AA00040F2D871C2F20000C2F200016B4640F26F
:101AB000032202F0B1F802B0BDE880407047000098
:101AC0007047000070B582B040F600050020C2F2F9
:101AD00000056C46CDE9000028462146FFF7F6F8E0
:101AE000064640F2EC00C2F200002430294632469D
:101AF000234603F039FC40F24C10C2F200002430BF
:101B000029463246234603F02FFC40F2AC10C2F2C5
:101B10000000243029463246234603F025FC02B05B
:101B200070BD000070470000B0B5044690F820007A
:101B300001281DD1022084F820002068016821F0CE
:101B40000101016000F008FB054600BF2068406805
:101B5000C00713D000F000FB401B0B28F6D3606ACF
:101B600040F400306062052084F820000120B0BD00
:101B7000606A40F4002060620120B0BD0020606215
:101B8000B0BD0000704700007047000070470000C3
:101B90007047000070470000704700007047000069
:101BA00070B5866D044600F0D7FA94F83510022916
:101BB00025D105462068216C026822F016020260D9
:101BC000426922F08002426109B9A16C19B1016831
:101BD00021F008010160016821F00101016000BFEE
:101BE00020680068C0070ED000F0B6FA401B062837
:101BF000F6D320206065032084F835000CE08020B7
:101C00006065012008E0E06D3F2101FA00F0B0605E
:101C1000012084F835000020002184F8341070BDC4
:101C200090F83510022909D1052180F83510006897
:101C3000016821F0010101600020704780214165A9
:101C400001207047F0B581B00021009140F26001A1
:101C5000C2F200010B68D0E9166148F2B515376889
:101C60000822C1F64E358A403A42A3FB05350CD016
:101C700003681C68640708D51C6824F004041C6011
:101C8000B260426D42F00102426501228A403A424E
:101C900008D003685B691B0604D5B260426D42F050
:101CA0000202426504228A403A4208D003681B6857
:101CB0009B0704D5B260426D42F0040242651022D7
:101CC0008A403A4216D001680B681B0712D5B260F1
:101CD0000B680A685B0306D4D20506D40A6822F0B2
:101CE00008020A6001E011033FD4016C11B10446FF
:101CF00088472046C26D202101FA02F33B4241D0C1
:101D000001680F68FF063DD5B36090F835700B6829
:101D1000052F1AD123F016030B604B6923F08003C3
:101D20004B61036C0BB9836C1BB10B6823F0080388
:101D30000B603F219140B160012180F83510016DA9
:101D4000002280F83420D9BB3EE00A685B0310D43F
:101D5000D20512D40A6822F010020A60012180F82C
:101D60003510002180F8341007E0816C0029BED1C5
:101D7000C0E7110301D4416C00E0C16B11B104460E
:101D800088472046416DF9B1416DC90716D005213C
:101D900080F835100168AA0A0B6823F001030B6074
:101DA000009B01339342009302D80B68DB07F7D105
:101DB000012180F83510002180F83410C16C19B170
:101DC00001B0BDE8F040084701B0F0BD2DE9F04199
:101DD000044600F0C1F9C4B10546022084F835007C
:101DE0000020216884F83400086820F001000860B1
:101DF00020680168C9070BD000F0AEF9401B052828
:101E0000F6D90321202203207AE00120BDE8F081E9
:101E1000016848F23F02CFF21002D4E9013501EA2D
:101E2000020ED4E9032143EA0E032B43D4E9056CE7
:101E30001A43D4E907781143314341EA0702616A42
:101E400042EA0802042942EA0C0303D1D4E90B2731
:101E50003A43134303604269042922F0070241EA2E
:101E600002012DD1D4E90A5341EA050143B3BCF57F
:101E7000005F08D0BCF1000F12D1022D16D0012D49
:101E800007D09DB119E0032D17D8DFE805F00B0F3F
:101E90000B02A3F1C072B2FA82F252094AB90FE002
:101EA000032D02D2012222B90AE006D1C3F3006257
:101EB00032B101214022012022E00022002AF8D183
:101EC00000F0F8024AF6AB23103ACAF6AA23A2FBA6
:101ED000033748F2D41341613909C0F60003595C55
:101EE00040F2FF3398435F2A4FF03F0288BF04302F
:101EF000C4E9160102FA01F18160002201210020EB
:101F0000626584F83510BDE8F081000090F834C0B7
:101F1000BCF1010F04BF0220704770B54FF0010CF7
:101F200080F834C0D0F858E090F835C0BCF1010F0B
:101F300037D14FF0020C80F835C04FF0000CC0F8DC
:101F400054C0D0F800C08468056CC06DDCF8006037
:101F5000402C26F48026CCF80060CCF804300B46E8
:101F600004BF13460A463F2101FA00F0CCF80830BE
:101F7000CCF80C20CEF80800DCF8000040F0160089
:101F8000CCF800002DB1DCF8000040F00800CCF8DF
:101F90000000DCF8000040F00100CCF80000002058
:101FA00070BD002180F83410022070BD2DE9F04F83
:101FB00083B000F1200200F13E4741F60045009257
:101FC00007F1FF77C4F2020508224FEAB726A842BC
:101FD00008BF0722072E38BF4FEAB72200274FF06D
:101FE000000A4FF0000801920AE000BF08F1010862
:101FF0000AF1020AB8F1100F07F1040700F09D8002
:102000000D68012202FA08FC15EA0C09EED04D68B1
:10201000032205F0030BABF10106012E02FA0AFEC2
:1020200010D88668CC6826EA0E0604FA0AF434430F
:1020300084604468C5F3001524EA0C0605FA08F527
:102040002E434660BBF1030F1BD0C6688D6826EA9D
:102050000E0605FA0AF52E43BBF1020FC66010D139
:102060006FF00302009D02EA580655F806C007F01B
:102070001C040F220B69A2402CEA0202A3401A435F
:10208000AA5102684B6822EA0E0203F0030606FA20
:102090000AF6324313F4403F0260A7D0002243F611
:1020A00044030292C4F202031A6843F6004442F465
:1020B00080421A601A68C4F2010402F4804202925B
:1020C000029A28F003024FF6084C2244CFF6FF7C18
:1020D00052F80C3007F00C060F25B540AB43019DBC
:1020E00005FA06F6334342F80C30A2684B6842EA20
:1020F000090643F60C4CDD0258BF22EA0906A66029
:10210000C4F2010CDCF800209D0242EA090658BF27
:1021100022EA0906CCF8006062689D0342EA0906DB
:1021200058BF22EA090666602268DB0342EA090614
:1021300058BF22EA0906266058E703B0BDE8F08FD1
:102140000069084018BF012070470000002A08BF3E
:10215000090481617047000045F28030C2F200003E
:102160000068704740F21E2045F28031C2F2000044
:10217000C2F2000100780A6810440860704700004D
:1021800080B543F60040C4F20200016841F40071DA
:102190000160016841F480610160016841F480716F
:1021A0000160032000F0BEF80F2000F005F800F0F9
:1021B00059F8002080BD0000B0B586B0002543F678
:1021C00044010195C4F202010A68044642F001028A
:1021D0000A60096801A801F00101019101996946AD
:1021E00000F060F900F092F94DF683614000C4F20E
:1021F0001B31A0FB01014FF0FF3000EB914140F695
:10220000E8300022C2F20000C4F2010240F2E733DB
:10221000C0E90021C0E902530561856100F072FB4D
:1022200008B106B0B0BD40F6E830C2F2000000F0E0
:1022300099FB0028F5D10546192000F035F80F2C40
:102240000CD819202146002200F040F840F220204E
:10225000C2F200000460284606B0B0BD012006B0FE
:10226000B0BD000082B0002043F640010190C4F2EE
:1022700002014A6842F480424A604A6802F480429D
:102280000192019A00900868002240F08050086096
:1022900008680F2100F08050009000986FF0010056
:1022A00002B000F013B80000002848BF704700F0EB
:1022B0001F01012202FA01F11C2202EAD0004EF2B3
:1022C0000012CEF2000281507047000010B54EF6A9
:1022D0000C5CCEF2000CDCF80030C3F3022E8EF062
:1022E0000704042C28BF0424BEF103034FF0FF3E73
:1022F0000EFA04F438BF0023A14399400EFA03F309
:102300009A43114300F1604200F00F03090102F506
:102310006442043B6344002848BF03F10C0211707F
:1023200010BD00004EF60C51CEF200010A684FF6C7
:10233000FF031A4060F30A2242F0806040F0FD7013
:1023400008607047002804BF012070472DE9F04164
:1023500043F60808C4F202080446D8F8F8030D460C
:1023600000F00700814207D988F8F853D8F8F8033D
:1023700000F00700A84276D12068810717D54107F1
:1023800005D5D8F8001041F4E051C8F80010010755
:1023900005D5D8F8001041F46041C8F80010D8F80D
:1023A0000010A26821F0F0011143C8F80010C00726
:1023B0003FD1D8F8F80300F00700854207D288F82B
:1023C000F853D8F8F80300F00700A8424BD1206872
:1023D000410707D5D8F80010E26821F4E051114315
:1023E000C8F80010000708D5D8F80000216920F4CB
:1023F000604040EAC100C8F8000000F09BF8D8F83F
:10240000001048F29A12C1F30311C0F60002515CA9
:1024100040F2600220FA01F140F22020C2F20000F6
:102420000068C2F200021160FFF7C6FE0020BDE89E
:10243000F0816068811E022907D258F8081C8901C2
:102440005CBF0120BDE8F08110E0012807D158F8F9
:10245000081C89035CBF0120BDE8F08106E058F844
:10246000081C890702D40120BDE8F081D8F80010CB
:1024700021F003010843C8F80000FFF76DFE06468F
:1024800041F28837D8F80000616800F00C00B0EB2A
:10249000810F8ED0FFF760FE801BB842F2D9032077
:1024A000BDE8F0810F22026043F60802C4F2020286
:1024B000136803F003034360136803F0F0038360C1
:1024C000136803F4E053C360D2F800C04FF4E05344
:1024D00003EADC030361D2F8F80300F007000860A8
:1024E0007047000040F2600043F60801C2F20000AD
:1024F000C4F202010068096848F2AA12C1F38221FD
:10250000C0F60002515CC8407047000040F2600015
:1025100043F60801C2F20000C4F202010068096833
:1025200048F2AA12C1F34231C0F60002515CC84021
:102530007047000010B543F60404C4F20204616859
:10254000C1F3810142F20040C0F2F400DFE801F083
:102550000203080210BD47F64000C0F27D1010BD16
:10256000206821682368490247F64001C0F27D11C6
:1025700000F03F02C3F388105CBF42F20041C0F29A
:10258000F401A1FB00010023FDF7FEFE21680222F9
:10259000C1F3014102EB4101B0FBF1F010BD0000BD
:1025A000002804BF012070472DE9F04182B00446A5
:1025B000007843F60006C007C4F2020649D0B068AE
:1025C00000F00C00042809D13068800341D5606810
:1025D00000283ED1012002B0BDE8F081B06800F0D3
:1025E0000C00082802D170684002EDD4656830689C
:1025F000B5F5A02F05D0B5F5803F09D140F4803066
:102600000CE040F480203060306840F4803005E019
:1026100020F480303060306820F480203060FFF794
:102620009BFD002D054611D03068800311D4FFF7C3
:1026300093FD401B6428F7D928E100BFFFF78CFD0C
:10264000401B64284FF0030000F2E08030688003F4
:10265000F4D4207880071BD5B06810F00C0F09D097
:10266000B06800F00C00082840F0858070684002D7
:1026700000F181803068800703D5E068012840F0D0
:102680009A803068216920F0F80040EAC10030608B
:102690002078000734D42078400746D4A5695DB37C
:1026A000B06800F00C00082840F09C80012D00F07C
:1026B00082807068E16900F480028A427BD1216ADD
:1026C00000F03F028A4276D147F6C071626A01404B
:1026D000B1EB821F6FD1A16A4FF6FF73C903994313
:1026E00000F44032A1F580318A4264D1E16A00F001
:1026F0007060B0EB016F5ED1002002B0BDE8F081E8
:10270000606900285BD00020C4F247200121C0F896
:10271000801EFFF721FD0546706F8007BBD4FFF7D1
:102720001BFD401B0228F7D9B0E0306C5FEAC008FF
:102730000AD400200190306C40F080503064306C3E
:1027400000F080500190019847F20007C4F20007A2
:102750003868C00526D4386840F480703860FFF7C8
:10276000FBFC05463868C0051CD4FFF7F5FC401B90
:102770000228F7D98AE0E068002840F20000C4F29D
:10278000472053D001210160FFF7E6FC054600BF5A
:10279000306880073FF575AFFFF7DEFC401B02286D
:1027A000F6D973E0A568306F052D51D0012D56D1B3
:1027B00040F0010059E0012002B0BDE8F0810020A6
:1027C000C4F247200021C0F8801EFFF7C5FC054673
:1027D000706F80077FF55FAFFFF7BEFC401B0228DC
:1027E000F6D953E00027C4F2472700203866FFF7E8
:1027F000B3FC022D05460DD1306880015DD5FFF791
:10280000ABFC401B02284FF00300F5D902B0BDE835
:10281000F08100BF306880017FF56EAFFFF79CFC50
:10282000401B02284FF00300F4D9EFE700210160BC
:10283000FFF792FC054600BF306880077FF528AFA0
:10284000FFF78AFC401B02284FF00300F4D9DDE7B4
:1028500040F004003067306F40F0010005E020F0E8
:1028600001003067306F20F004003067FFF774FC20
:10287000002D054641F2883713D000BF306F800726
:1028800012D4FFF769FC401BB842F7D9032002B00D
:10289000BDE8F081FFF760FC401BB8424FF0030039
:1028A000B4D8306F8007F5D4B8F1000F3FF5F6AE1D
:1028B000306C20F080503064F0E604F11C052FCD20
:1028C000084340EA8210D9034FF6FF729143A1F505
:1028D000803140EA05600843706001203866FFF7E8
:1028E0003BFC0446306880013FF506AFFFF734FC3F
:1028F000001B02284FF00300F4D987E7704700005F
:1029000070470000002804BF0120704710B504463E
:1029100090F83D0028B9002084F83C00204600F0E3
:102920001FF8022084F83D002068211D02F0E2F922
:10293000012084F8460084F83E0084F83F0084F8C3
:10294000400084F8410084F8420084F8430084F891
:10295000440084F8450084F83D00002010BD0000CC
:102960007047000090F83D1001291CBF01207047FE
:10297000022180F83D10006841F2FF72C168C4F284
:102980000002904241F00101C1600DDC40F2FF7194
:10299000C4F20001884215DCB0F1804F29D040F22A
:1029A0000041C4F2000122E040F2FF31C4F2010113
:1029B000884212DC41F60001C4F20001884218D0BE
:1029C000002112E040F60001C4F20001884210D05C
:1029D00040F60041C4F2000109E044F20001C4F2F3
:1029E0000101884205D040F20041C4F20101884251
:1029F00006D1816801F00701062904BF0020704755
:102A0000016841F00101016000207047704700003B
:102A100070B504460068C5680669B10716D515F09B
:102A2000020113D06FF00201016101212177806959
:102A3000800703D02046FFF7E9FF05E0204600F0BD
:102A40008DF8204600F08CF800202077700718D50C
:102A500015F0040015D020686FF004010161022117
:102A60002177806910F4407F03D02046FFF7CEFF26
:102A700005E0204600F072F8204600F071F80020D2
:102A80002077300717D515F0080014D020686FF0B4
:102A90000801016104212177C069800703D0204625
:102AA000FFF7B4FF05E0204600F058F8204600F09C
:102AB00057F800202077F00618D515F0100015D033
:102AC00020686FF01001016108212177C06910F4BE
:102AD000407F03D02046FFF799FF05E0204600F035
:102AE0003DF8204600F03CF800202077F00718BFA2
:102AF00015F0010002D1300609D412E020686FF011
:102B000001010161204600F02DF8300609D515F0CD
:102B1000800006D020686FF0800101612046FFF739
:102B2000EDFE700609D515F0400006D020686FF064
:102B300040010161204600F01FF8B00658BF70BD8B
:102B400015F0200008D021686FF0200220460A61AD
:102B5000BDE87040FFF7D4BE70BD000070470000B4
:102B60007047000000680021C4F20101884218BFCC
:102B70007047FFF7F7BA00007047000090F8423046
:102B8000202B07D100294FF0010318BF002A04D1E0
:102B900018467047022318467047B0B582B001232B
:102BA000002503634563044602F074FB216B012397
:102BB000012912D1019521680A68019249680191A1
:102BC000019900BF216851E8031F226841F01001FC
:102BD00042E80313002BF5D1034602B0BDE8B04034
:102BE00018467047006845F20002C4F200029042A5
:102BF00018BF704770B540F60855C2F20005284668
:102C00000C4600F01DF840F2D470C2F2000045F20C
:102C100060360068C2F20006294632462346FEF7B7
:102C2000D3F9284631461E22FFF7A8FFE86B00685B
:102C3000016821F008010160BDE8704070470000A4
:102C400010B504460068406994F84110212920D14C
:102C500010F080001DD000BF206850E8050F2168EB
:102C600020F0800041E80502002AF5D1A06B002881
:102C700018BFFEF795FF00BF206850E8030F2168DA
:102C800020F0C00041E80302002AF5D1202084F89A
:102C900041002068406994F84210222939D110F08F
:102CA000400036D0206850E8050F216820F0400031
:102CB00041E80502002AF5D1E06B002818BFFEF7B5
:102CC0006FFF00BF206850E8030F216820F4907068
:102CD00041E80302002AF5D1206850E8050F216879
:102CE00020F0010041E80502002AF5D1206B0128FF
:102CF0000AD100BF206850E8030F216820F01000BF
:102D000041E80302002AF5D1202084F84200002087
:102D10002063002010BD0000016845F20002C4F2EB
:102D20000002914218BF7047B0B584B00446FFF767
:102D300087FF00206064202084F8420084F841006E
:102D40002068016811F00E0F07D00268C9070392CE
:102D5000426802921CBF0068019040F2D470C2F237
:102D6000000040F6085445F260350068C2F20004E5
:102D7000C2F2000521462A460023FEF725F9204627
:102D800029461E22FFF7FAFEE06B0068016821F079
:102D90000801016004B0BDE8B040704790F84110F0
:102DA00090F842000843C0B270470000B0B582B04E
:102DB00001680A68CC684B6902F02F05202D04F0E9
:102DC000200505D125B102B0BDE8B04002F092B9AE
:102DD0005FEA027C1EBF03F0010E04F4907313EB54
:102DE0000E0340D1036BD50618D5012B16D114F074
:102DF000100313D0002201920A6801924A680192DE
:102E0000019A4969490647D4818DC28DC38D002B33
:102E100018BF914240F01A8102B0B0BD13062AD506
:102E200014F0800327D090F84120212AF4D1826841
:102E3000B2F5805F03D10269002A00F03A81026A8C
:102E4000531C036212784A60C28C013A1304C28494
:102E5000E2D1C86820F08000C860C86840F0400037
:102E6000C86002B0B0BDD10718BF14F4807167D13B
:102E700051076BD471E05206CED514F04002CBD08E
:102E8000CA6822F04002CA60202180F8411002B0D6
:102E9000BDE8B04000F0F0BBC26B116849688BB26E
:102EA000002B42D0858DAB423FD2C185D169B1F5AF
:102EB000807F33D0016851E8031F026821F48071DC
:102EC00042E80313002BF5D1016851E8051F0268A1
:102ED00021F0010142E80513002BF5D1016851E80A
:102EE000051F026821F0400142E80513002BF5D1CF
:102EF000202180F842100021016300BF016851E8E1
:102F0000031F026821F0100142E80313002BF5D1E2
:102F1000C16B04460846FEF743FE2046022141638A
:102F2000818DC28D891A89B2B9E0818D99427FF471
:102F300073AFD269B2F5807F7FF46EAF0222ADE04D
:102F4000416C41F001014164510706D5BEF1000F0B
:102F500003D0416C41F002014164910706D5BEF1F6
:102F6000000F03D0416C41F004014164BCF1000F3B
:102F700006D55EEA050103D0416C41F008014164C9
:102F8000416C00293FF448AF910604D51DB10446B9
:102F900002F0B0F8204601684969426C01F0400136
:102FA00002F0080289184AD0016851E8031F02683C
:102FB00021F4907142E80313002BF5D1016851E828
:102FC000051F026821F0010142E80513002BF5D12D
:102FD000016B01290AD100BF016851E8031F026893
:102FE00021F0100142E80313002BF5D1202180F8D5
:102FF00042100021016301684969490654D500BFA8
:10300000016851E8051F026821F0400142E80513FC
:10301000002BF5D1C16B002946D044F66572C0F68D
:103020000002044608460A65FEF7FAFD00283FF450
:10303000F3AEE06B016D02B0BDE8B0400847044656
:10304000FFF76AFE0020606402B0B0BD891A00BFBD
:10305000026852E8032F036822F4907243E80325C4
:10306000002DF5D1026852E8052F036822F0010215
:1030700043E80525002DF5D1202280F842200022CA
:10308000026300BF026852E8032F036822F01002B7
:1030900043E80325002DF5D1022289B2426302B034
:1030A000BDE8B040FFF79EBD02B0BDE8B040FFF7FD
:1030B00033BE026A32F8023B6FF35F234B60026259
:1030C000C2E60000002804BF0120704710B5044686
:1030D00090F8410028B9002084F84000204600F014
:1030E00021F8242084F841002068C16821F40051AF
:1030F000C160204602F05EF82068016921F4904129
:103100000161416921F02A014161C16841F4005126
:10311000C16000202021606484F8411084F84210CE
:10312000606310BD2DE9F04F87B00446006844F697
:10313000FF31C4F2000188424FF000010691CDE951
:103140000411CDE902117ADD41F20041C4F201011E
:10315000884200F0EA8045F20001C4F20001884292
:1031600000F0478144F60041C4F20001884240F07B
:103170003282002643F630000196C4F20200016953
:1031800046F2100841F4002101610169C4F202080D
:1031900001F40021019101990196016841F00401B7
:1031A0000160006802A900F00400019001984FF44A
:1031B000406002900220CDE903060320059008201C
:1031C000069040F60000C4F20200FEF7EFFE40F663
:1031D000280508F13000C2F200054FF000674FF4F7
:1031E0008069C5E900072846C5E90266C5E9049675
:1031F000C5E90666C5E90866FEF7E8FD002818BFC0
:10320000FEF782F8E563AC6340F6880508F16000DC
:10321000C2F200054021C5E9000705F1080080E879
:1032200042022846C5E90566C5E907666E62FEF7F3
:10323000CDFD00284FF0340640F05981C1E144F241
:103240000041C4F20001884200F0548144F60001BC
:10325000C4F20001884240F0BE81002643F63000EF
:103260000196C4F20200016946F2100841F480217F
:1032700001610169C4F2020801F480210191019900
:103280000196016841F002010160006802A900F0A6
:103290000200019001984FF4406002900220CDE9B5
:1032A0000306032005900720069040F60000C4F2B4
:1032B0000200A0F58060FEF779FE40F6682508F16F
:1032C0001800C2F200054FF000674FF48069C5E9AD
:1032D00000072846C5E90266C5E90496C5E9066601
:1032E000C5E90866FEF772FD002818BFFEF70CF866
:1032F000E563AC6340F6C82508F14800C2F200055A
:103300004021C5E9000705F1080080E8420228468F
:10331000C5E90566C5E907666E62FEF757FD002838
:103320004FF0270640F0E3804BE1002643F63000E3
:103330000196C4F20200416946F2100841F02001F2
:1033400041614169C4F2020801F020010191019933
:103350000196016841F004010160006802A900F0D3
:10336000040001900198C02002900220CDE90306DC
:10337000032005900820069040F60000C4F20200E9
:10338000FEF714FE40F6283508F58360C2F200050A
:103390004FF020674FF48069C5E900072846C5E96A
:1033A0000266C5E90496C5E90666C5E90866FEF742
:1033B0000DFD002818BFFDF7A7FFE563AC6340F6DD
:1033C000883508F59260C2F200054021C5E9000782
:1033D00005F1080080E842022846C5E90566C5E90E
:1033E00007666E62FEF7F2FC00284FF047067ED1BA
:1033F000E7E0002743F630000197C4F202000169BC
:1034000040F6000541F4801101610169C4F2020532
:1034100001F48011019101990197016802AE41F018
:1034200004010160016846F2100801F004010191F5
:103430000199019701684FF0020941F0080101600C
:1034400000684FF0030A00F00800019001984FF463
:10345000805002904FF0080B28463146C4F2020813
:10346000CDE90397CDF814A0CDF818B0FEF79EFD76
:103470000420CDE9020904A880E8800C05F58060ED
:103480003146FEF793FD40F6E805C2F200054FF025
:1034900000664FF480692846C5E90086C5E90277D1
:1034A000C5E90497C5E90677C5E90877FEF78EFCFC
:1034B000002818BFFDF728FFE563AC6340F6481508
:1034C00008F1A800C2F200054021C5E9000605F197
:1034D000080080E882022846C5E90577C5E9077734
:1034E0006F62FEF773FC00284FF0350669D0FDF7D8
:1034F0000BFF66E0002643F630000196C4F202009E
:10350000016946F2100841F4003101610169C4F219
:10351000020801F40031019101990196016841F01E
:1035200008010160006802A900F0080001900198FC
:10353000602002900220CDE90306032005900720B9
:10354000069040F60000C4F2020000F58060FEF72D
:103550002DFD40F6A81508F17800C2F200054FF0E5
:1035600000674FF48069C5E900072846C5E902668F
:10357000C5E90496C5E90666C5E90866FEF726FCB6
:10358000002818BFFDF7C0FEE563AC6340F60825D0
:1035900008F19000C2F200054021C5E9000705F1DD
:1035A000080080E842022846C5E90566C5E90766C5
:1035B0006E62FEF70BFC00284FF0260618BFFDF7E1
:1035C000A3FE304605210022A563AC63FEF77EFE14
:1035D0003046FEF769FE07B0BDE8F08F7047000087
:1035E00070470000B0B590F84140202C1CBF02206D
:1035F000B0BD134600294FF0010218BF002B01D1C6
:103600001046B0BD4FF0000C212401628384C384B6
:10361000C0F844C080F8414002680446806B45F21F
:10362000AD0E45F2ED05C0F6000EC0F60005C0E98E
:103630000FE544F67175C0F600050432C0E9135C6D
:10364000FEF764FC30B110206064202084F8410053
:103650000120B0BD20686FF040010160206850E893
:10366000050F216840F0800041E80502002AF5D1ED
:1036700000221046B0BD00007047000070470000F7
:10368000FEE7000082B003F0EFFF41F2343B40F26E
:10369000640640F2000444F6D35840F6C05905468B
:1036A0000027C2F2000BC2F20006C2F200040DF1C4
:1036B000040AC1F26208C2F20009019004E0002786
:1036C0005046022102F01EFF03F0CEFFBBF90010AE
:1036D00063290CDC96ED050A94ED021A013130EEF7
:1036E000011A84ED000A84ED011AABF80010F9B25A
:1036F0000329E4D8DFE801F00246123240F698517F
:10370000C2F2000109780129DAD140F21021012723
:10371000C2F200010F800546D2E700BF40F21A2135
:10372000C2F20001B1F900104FF47A725143A1FBCB
:103730000812411BB1EB921F59D240F21020C2F285
:103740000000008801282CD1012001F035FA40F258
:1037500010210220C2F20001088022E040F21C2168
:10376000C2F20001B1F900104FF47A725143A1FB8B
:103770000812401BB0EB921F3CD296ED050AD4ED27
:10378000000A12E040F21821C2F20001B1F9001063
:103790004FF47A725143A1FB0812411BB1EB921F07
:1037A00035D296ED050AD4ED010A06F1380000F095
:1037B00093FAB6F90200D6ED150A00EE100AB8EE3B
:1037C000C00A06F15C0000F087FA96ED1E0A4FF47D
:1037D0000071BDEEC00A10EE100AA9F8040040F214
:1037E000D870C2F200004A4600F034FA68E70327B6
:1037F000054665E740F698500027C2F200000770C2
:1038000040F21020C2F200000121018058E7022797
:10381000054655E78A68C0E90012704740680028ED
:1038200018BF043070470000416800291CBF0968B8
:1038300041607047F0B581B00446D0E900600F46A2
:1038400001306060301DFCF749FD0021054640F85D
:10385000041B39463246FCF70FFE54F8080F18B126
:10386000044600680028FBD10020256001B0F0BDAF
:1038700010B504460C20FCF731FD0021C0E90041E1
:10388000816010BD80B540F2D87046F20041C2F2AE
:103890000000C4F200010322002380E80E0000F1C2
:1038A0000C014FF4A02C4FF4C00E81E80850836146
:1038B0008383FDF7ADFF002808BF80BDBDE88040D1
:1038C000FDF722BD80B540F6000046F60001C2F2C9
:1038D0000000C4F200010322002380E80E0000F182
:1038E0000C014FF4A02C4FF4C00E81E80850836106
:1038F0008383FDF78DFF002808BF80BDBDE88040B1
:10390000FDF702BD80B582B0002043F63001019082
:10391000C4F202010A6842F400120A600A6802F462
:1039200000120192019A00900868002240F4800081
:1039300008600868052100F48000009000980B20C2
:10394000FEF7C4FC0B20FEF7AFFC0C200521002283
:10395000FEF7BCFC0C20FEF7A7FC0D200521002281
:10396000FEF7B4FC0D20FEF79FFC0E20052100227F
:10397000FEF7ACFC0E20FEF797FC0F20052100227D
:10398000FEF7A4FC0F20FEF78FFC1020052100227B
:10399000FEF79CFC1020FEF787FC11200521002279
:1039A000FEF794FC1120FEF77FFC2F20052100225A
:1039B000FEF78CFC2F20FEF777FC39200521002232
:1039C000FEF784FC3920FEF76FFC4520052100221C
:1039D000FEF77CFC452002B0BDE88040FEF764BCE9
:1039E00080B501200021032203F024F941F2644153
:1039F000C2F20001086044F6F93048F2DC12C0F669
:103A00000000C0F60002002101F028FE40F2D07153
:103A1000C2F20001086080BDF0B587B0002643F611
:103A200030000696CDE90466CDE902660196C4F23F
:103A300002000168002441F0800101600168C4F2C5
:103A4000020401F0800101910199019601680022B0
:103A500041F0040101600168102701F004010191A7
:103A600001990196016841F001010160016801F0CE
:103A70000101019101990196016841F00201016083
:103A8000016801F00201019101990196016841F07C
:103A9000080101600068102100F008000190019801
:103AA0002046FEF753FB0C2002ADCDE9020604F5DB
:103AB000006029460496FEF779FA0120CDE9030655
:103AC0002046294602970596FEF770FA4FF44050BB
:103AD000CDE9020604F5806029460496FEF766FAF1
:103AE00007B0F0BD80B540F6C04044F60041C2F2D8
:103AF0000000C4F2000100234FF00C0C4FF4E1323F
:103B000080E80E00C0E90333C0E905C3C361FFF7D5
:103B1000D9FA002808BF80BDBDE88040FDF7F4BB9E
:103B200080B540F6085045F20001C2F20000C4F230
:103B3000000100234FF00C0C4FF4E13280E80E003E
:103B4000C0E90333C0E905C3C361FFF7BBFA00282E
:103B500008BF80BDBDE88040FDF7D6BB80B540F60C
:103B6000304044F20041C2F20000C4F200010023E0
:103B70004FF00C0C4FF4E13280E80E00C0E9033343
:103B8000C0E905C3C361FFF79DFA002808BF80BDE7
:103B9000BDE88040FDF7B8BB80B540F6784044F6FC
:103BA0000001C2F20000C4F2000100234FF00C0C2F
:103BB0004FF4E13280E80E00C0E90333C0E905C3E9
:103BC000C361FFF77FFA002808BF80BDBDE88040D1
:103BD000FDF79ABB80B540F6505041F20041C2F269
:103BE0000000C4F2010140F6001200234FF00C0C5B
:103BF000C0F23D0280E80E00C0E90333C0E905C30E
:103C0000C361FFF75FFA002808BF80BDBDE88040B0
:103C1000FDF77ABBFEE7000010B5846A09682468E6
:103C2000A14214D1C16A8A4211D11946044600F05A
:103C3000FFF894F8800020B92169012084F8800001
:103C400021632069216B401A6063012010BD0020B0
:103C500010BD000080B582B013881BBA4FEA134C28
:103C60005388ADF800C01BBA4FEA134C9388D28832
:103C70001BBA12BA120C1B0CADF806206A46ADF83E
:103C800002C0ADF80430FDF73FF802B080BD00007F
:103C900010B541F23834C2F200040A46014620460B
:103CA000FCF7EAFB94E80F1041F25044C2F2000422
:103CB00084E8070041F26440C2F200000068E3605B
:103CC000002100220023C4F810C0BDE8104003F01A
:103CD00061B80000FEE7000090ED063A90ED032A7F
:103CE00030EEC00A90ED041A30EE033AB4EE423AD8
:103CF00080ED040A80ED051AF1EE10FA80ED063A27
:103D0000C8BF80ED062A90ED063AB1EE422AB4EE25
:103D1000423AF1EE10FAB8BF80ED062A90ED002A83
:103D200090ED013A90ED064A90ED025A22EE002AFB
:103D300030EE410A23EE043A25EE001A90ED080A0F
:103D400032EE032A31EE022AB1EE401AB4EE412AD5
:103D5000F1EE10FA80ED072AB8BF80ED071A90ED5A
:103D6000071AB4EE401AF1EE10FAC8BF80ED070A48
:103D7000704700000000000000000000000000008C
:103D8000EFF30980BFF36F8F154B1A681EF0100F09
:103D900008BF20ED108A20E9F04F10602DE90900DE
:103DA0004FF0500080F31188BFF34F8FBFF36F8F38
:103DB00002F00EFE4FF0000080F31188BDE809000C
:103DC00019680868B0E8F04F1EF0100F08BFB0EC9B
:103DD000108A80F30988BFF36F8F704700BF00BF60
:103DE000BC0E0020F0B581B0044600284FF0010061
:103DF00019D00E46B9B11546AAB1002103220027F9
:103E000002F018FF6061301DC4E9005745432846A1
:103E1000A660FCF763FAE06038B129460646FCF775
:103E200078FB0020266101B0F0BD022001B0F0BD9A
:103E300010B50A8812BA4FEA124CA0F800C04B889D
:103E40001BBA4FEA134EA0F802E083898C88C3EBBB
:103E5000124322BA120C82808C7919B2B1F57A6FB2
:103E6000847102DDC389013BC38111F57A6F02DAE7
:103E7000C1890131C181B0F90E109FED1B1A0CEB05
:103E8000413100EE101AB8EEC00A016120EE010ABD
:103E90000FFA8EF180ED050A00EE101A90ED061A69
:103EA00090ED072A11B2B8EEC00A90ED083A05EE7F
:103EB000101A21EE001A22EE002AB8EEC55A22EEA0
:103EC000052A21EE000A23EE051A90ED094A30EE8C
:103ED000020A21EE051A31EE000A34EE000A80EDE6
:103EE000020AA0F80CC010BD0000343D86B040F6B8
:103EF000B851C2F200010968044604A8FFF78AFC21
:103F000041F24C36C2F2000640F2D478B01C41F2C5
:103F1000684BC2F200080DF10F0900900027F01D58
:103F20000DF1080AC2F2000B019003E014B1032066
:103F3000A04700BFD8F80000494601224FF47A7329
:103F4000FCF774FF0130F5D09DF80F205A2A35D0C8
:103F5000AA2A5DD1D8F80000514604221423029702
:103F6000FCF764FF042859D141F2E850C2F2000086
:103F700000684FF0FF3103F047F90298002103E099
:103F80003031B1F5C07F0DD00BEB01052A7C002A42
:103F9000F6D06A698242F3D1AA6912B1E8690121B7
:103FA00090472F7441F2E850C2F2000000680021EF
:103FB0000022002302F0EEFEBCE700BF3146D8F835
:103FC000000001F8012B01221423FCF72FFF012828
:103FD000ACD17578072DA9D9E91ED8F800008FB2A9
:103FE00000993A4632234FF0000AFCF71FFFB8420F
:103FF0001AD1681E24D041F24C31C2F2000180B2C5
:104000000139002711F8012F01381744FAD118E0BF
:10401000002C3FF48FAF0120A0478BE7002C3FF42A
:1040200089AF0420A04785E741F24C36002C4FF0C1
:1040300000070DF1080AC2F200067FF478AF79E7B5
:104040000027D8F800000DF10E01012214238DF88D
:104050000EA0FCF7EBFE012857D19DF80E00F9B237
:1040600041F24C368842C2F2000657D196F902A0BE
:10407000BAF1FF3F1FDCAA208DF8080041F24C3056
:10408000C2F2000041F25477D0F80310C2F20007E8
:104090003868CDF809104FF0FF3103F0B5F8D8F8C3
:1040A000000002A90522FDF717F838680021002258
:1040B000002302F06FFE41F24C40C2F200000068A3
:1040C0004FF0FF3103F0A0F804AF384600F06CFA6F
:1040D0003846FFF7A3FB40B35FFA8AF101F00F0AFD
:1040E000A5F108018FB207E004AD2846FFF79CFB5D
:1040F0002846FFF793FBC0B1017B5145F4D1D0E9CD
:104100000032019839469847EEE741F24C360DF1FE
:10411000080AC2F20006C4B1032003E00DF1080A48
:104120009CB10220A047002704E741F24C40C2F2B4
:104130000000006800210022002302F02BFE41F263
:104140004C360DF1080AC2F200060027F2E6000024
:1041500084B003F089FA039040F60850C2F20000E0
:10416000FCF70EFE40F2D471C2F20001086000209C
:1041700000F01EF940F20C20C2F20000006841F28B
:104180005042C2F20002012101F00AFF40F2EC04A9
:10419000C2F2000440F24C15C2F2000540F2AC1627
:1041A00004F1240040F20C0B9FED7A8A9FED7AAA6D
:1041B0009FED7ABA9FED7ACA9FED7ADA9FED7AEA9F
:1041C000DFED7A8AC2F20006029005F1240040F287
:1041D000703A45F6642945F66028C2F2000BB6EE47
:1041E000009AB1EE0CFA019006F12400C2F2000A26
:1041F00003AFC2F20009C2F20008009004E000BF61
:104200003846022102F07EF99BF80000022840F0B7
:104210009A8000F047F940F2A43240F2A030C2F296
:104220000002C2F2000040F2A83392ED000A90EDC5
:10423000001AC2F2000393ED002A21EE081A20EEC4
:10424000090A31EE400A22EE0A1A45F2983131EE9F
:10425000000AC2F2000181ED000A92ED000A90ED21
:10426000001A93ED002A21EE0B1A20EE090A31EE16
:10427000400A22EE0A1A45F29C3031EE000AC2F2E0
:10428000000080ED000A92ED000A93ED001A45F25D
:10429000A03221EE0A1A31EE000AC2F2000282EDCB
:1042A000000A91ED000A45F65C2180EE0C0AC2F28C
:1042B000000120EE0D0A81ED000A90ED000A204673
:1042C00080EE0C0A20EE0E0A89ED000A92ED000A3B
:1042D00080EE0C0A20EE0D0A88ED000A94ED0B0A20
:1042E000D1ED000AB8EEC00A80EE0F0A80EE280A6F
:1042F000FFF7F2FC95ED0B0AD9ED000AB8EEC00A03
:1043000080EE0F0A284680EE280AFFF7E5FC96EDBE
:104310000B0AD8ED000AB8EEC00A80EE0F0A30464C
:1043200080EE280AFFF7D8FC94ED070A029801F006
:1043300007F995ED070A019801F002F996ED070AD1
:10434000009801F0FDF89AF81000012806D19AF8BB
:104350001E00002804BF02208BF800009AF811000C
:10436000012806D19AF81F00002804BF03208BF80B
:1043700000009AF8160001287FF442AF9AF8240052
:1043800000287FF43DAF40F698510120C2F20001B1
:10439000087035E7D7B35D3FE7FBE93ED7B35DBFB4
:1043A0003B46F13E000070C2000070429A995940AD
:1043B00070B582B0044640F6A050C2F2000054210D
:1043C0000822FFF70FFD40F69C50C2F200000025C6
:1043D00005601020FFF74CFA40F6B851C2F2000118
:1043E000086008201821002202F024FC41F2EC6150
:1043F000C2F200010860012002F0E4FB41F25471B6
:10440000C2F200010860012002F0DCFB41F24C41E5
:10441000C2F200010860012002F0D4FB41F2E85131
:10442000C2F20001086044F645200526C0F60000EF
:1044300011A14FF480720023CDE9006503F016F856
:1044400043F6ED60C0F600000FA14FF480722346E2
:10445000CDE9006503F00AF840F605000326C0F632
:1044600000000DA14FF480720023CDE9006502F039
:10447000FDFF02B070BD00BF7561727453656E645C
:104480005461736B0000000075617274526563764D
:104490005461736B000000007561727461636B544A
:1044A00061736B0080B541F26440C2F200000068A5
:1044B000C82102F0A9FE012860D140F27030C2F29A
:1044C0000000D0E903329FED342AC0F81E2041F2EB
:1044D0005042C2F2000292ED011A018B92ED000AE5
:1044E00092ED023A81EE021A9FED2C2A9FED2C4AA2
:1044F000C184416980EE020A83EE042AC0F82210CA
:104500001169C0F81A30C1F34003C375C1F38003C9
:104510000376C1F30013C374C1F380130375C1F3B1
:10452000C0034375C1F340138375C1F30023437681
:10453000C1F38023C1F3C0220374C1F3402342734B
:10454000C1F300329FED174A4374C1F38033827385
:10455000C1F34032C9B2B1EE003AC90921EE031AE3
:1045600020EE030A22EE042A0373C273817480EDE5
:10457000001A80ED010A80ED022A80BD40F2703001
:10458000C2F2000000210183C0E90011C0E902115C
:10459000C0E9041180BD00BF0020F74400C0E04422
:1045A00000E0E644DB0F49400168896841607047DC
:1045B00080B58AB00DC842EA0322002142F0407261
:1045C000CDE904120422CDE906210822CDE900112B
:1045D00008928DF8241004A96A4603ABFCF7ACFEE0
:1045E0000AB080BD4FF0FD0C80E8061003737047E1
:1045F000002804BF0120704770B58AB0037B4FF0DC
:10460000000C032BCDF804C0CDF800C000F2CE8022
:1046100068A202EB830292ED004A6AA202EB8302D7
:1046200092ED003A48F2B412C0F6000202EB8302A7
:1046300092ED005A67A202EB830292ED006A48F203
:10464000C412C0F60002DFED6B2A02EB830292ED8A
:10465000007A64A270EEA20ADFED684A02EB8302E0
:10466000F5EE400AD2ED003ADFED632AF1EE10FAE2
:10467000B8BFF0EE620AF4EE640A31EE461AF1EECB
:1046800010FA35EE465AB5EE401AC8BFF0EE640A8D
:10469000F1EE10FAB8BFB0EE621AB4EE451AF1EEC0
:1046A00010FAF5EE401AC8BFB0EE451AF1EE10FA56
:1046B000B8BFF0EE621AF4EE441AF1EE10FAB5EE5D
:1046C000402ADFED4F5AC8BFF0EE441AF1EE10FA5F
:1046D000B8BFB0EE622AB4EE432AF1EE10FAC8BFBA
:1046E000B0EE432A22EE252A30EE630A82EE032A38
:1046F00037EE633AB5EE400AF1EE10FAB8BFB0EE0D
:10470000620AB4EE430AF1EE10FAC8BFB0EE430AF3
:1047100020EE250A60EEA50A21EE251A80EE030A96
:10472000C0EEA40A81EE051A21EEA55A85EE044AD0
:1047300000688DF824C0BDEEC00ABDEEE03ABDEEC3
:10474000C11A10EE105A13EE102A11EE103ABDEEF7
:10475000C41A41EA052111EE10EABDEEC21A160A8A
:104760008DF801201A0A01F1807111EE104A8DF8BE
:1047700002204FEA1E22CDE904C104218DF8042055
:10478000220ACDE9061C08218DF803308DF8062099
:10479000089104A96A4603AB8DF800608DF805E026
:1047A0008DF80740FCF7C8FD0AB070BD02200AB0C2
:1047B00070BD00BF0000FA4300409C4500409C458E
:1047C00000409C450000A0400000C8420000C842D4
:1047D0000000C842000030C2000030C20000A0C18A
:1047E000000070C1000088C1000070C2000070C2EB
:1047F0000000F0C2DB0F494100000000DB0FC9419F
:1048000000FF7F470000000070B506680968366841
:10481000B14277D14168C2F307268E4272D1110EA0
:1048200000F09380152900F08C8011296CD00229AA
:1048300040F08B80110C80F83810198848F2010480
:1048400009BACFF6FF7404EB114100EE101AB8EE6E
:10485000C00AB1EE001A20EE010A10EE101A064648
:1048600008461D4603F016FC9FED490B53EC102B38
:1048700003F012FB9FED480B53EC102B03F098F95B
:1048800003F064F9317B3061032900F25E8048F265
:10489000B410C0F600006A8800EB810090ED000AB9
:1048A00010BA04EB104001EE100AB8EEC11A9FEDE9
:1048B0003C2A20EE010A80EE020A48F2C410C0F63B
:1048C000000000EB810090ED001A86ED050AA88833
:1048D00000BA04EB104000EE100AB8EEC00A21EE58
:1048E000000A80EE020A9FED2F1A86ED060AE8887C
:1048F00040BA00EE100AB8EE400A20EE010A86ED3A
:10490000090A22E0002070BD0146188847F205021E
:10491000821A1B2A4FF0010088BF70BDDFE802F049
:104920000E161616161623161616161A2C16162FEF
:1049300016161D2629163516163217201879086402
:1049400003E0D3E90012C0E90C12012070BD5868E1
:104950000866FAE758688864F7E758684865F4E736
:1049600058684866F1E758684864EEE75868886513
:10497000EBE758680861E8E75868C864E5E75868F5
:104980000865E2E75868C865DFE758684861DCE712
:10499000182D4454FB21094000000000C0FFDF40F7
:1049A00000FEFF46CDCCCC3D80B58AB001220092FE
:1049B0000DC842EA0322002142F0C062CDE9041290
:1049C0000422CDE906210822019108928DF82410D5
:1049D00004A96A4603ABFCF7AFFC0AB080BD000037
:1049E00080B58AB0002247F20503CDE90022ADF878
:1049F00000308DF804100BC841EA032141F09051BA
:104A0000CDE904210421CDE90612082108918DF891
:104A1000242004A96A4603ABFCF78EFC0AB080BDD3
:104A2000074B19680868B0E8F04F80F30988BFF3B6
:104A30006F8F4FF0000080F31188704700BF00BFF8
:104A4000BC0E002086B041F2EC5540F2E804C2F200
:104A5000000541F2547B41F26848C2F20004EE1DA9
:104A6000A5F1010AC2F2000BC2F2000805E000BF86
:104A7000049A12B105980021904741F2EC60C2F20D
:104A80000000006869464FF0FF3202F0E9FAD4F8FE
:104A90000090BDF8007009F10100F92F2060E7D205
:104AA0009DF802105A20287007F10800A97001999A
:104AB000687030463A46C5F80390FBF7DDFCF81DF8
:104AC00080B20021524600BF12F8013F013819445C
:104AD000FAD17A19DBF80000D1714FF0FF3102F002
:104AE00093FBBDF8001040F2D470C2F200000068E1
:104AF00008318AB22946FCF7EFFADBF80000002102
:104B00000022002302F046F99DF90200002806D495
:104B1000049A002AB1D0059801219047ADE741F2EF
:104B2000E850C2F2000000684FF0FF3102F06CFB69
:104B3000002000BF08EB0007397C79B13030B0F5B8
:104B4000C07FF7D141F2E850C2F2000000680021B6
:104B50000022002302F01EF9049A8BE70121397428
:104B6000DDE90412C7E905919DF80210FA6187F8A2
:104B700022100199BDF8002079623A849DF808104E
:104B8000039A87F8281048F80020FCF7F7F844F655
:104B9000D351C1F26201A0FB010141F2E850C2F21F
:104BA0000000890900680022C7E9021200210023E1
:104BB00002F0F0F861E7000080B540F29C31C2F2EB
:104BC000000148705520887040F6C040AA22C2F209
:104BD00000000A70FEF7E2F8202818BF80BD40F6FA
:104BE000C04040F29C31C2F20000C2F20001032238
:104BF000BDE88040FEF7F6BC00F012F9002001F09D
:104C0000F9FC00BF012000F0E7FCFBE780B54EF2A5
:104C10001000CEF20000006802F012FD012808BF6B
:104C200080BDBDE8804001F0B5BF000070B592B016
:104C300006AC20463021FBF78EFC002543F64000F1
:104C40000595CDE90355CDE901550095C4F2020063
:104C50000168022641F080510160006800F0805038
:104C60000090009847F200000095C4F2000001682F
:104C700041F480410160006800F480400090009899
:104C80000120099010200A9008200E90A820CDE95C
:104C90000F060420119020460696CDE90C65FDF71D
:104CA0007FFC10B172B600BFFEE70F20CDE9010610
:104CB0004FF4A05004904FF48050059001A80521B6
:104CC0000395FDF73FFB10B172B600BFFEE712B0CF
:104CD00070BD00004EF68850CEF20000016841F42D
:104CE000700101607047000040F6E830C2F2000039
:104CF000FDF78EBEB0B540F6FF3E0568C4F2000E6B
:104D000040F2004C7045C4F2010C0FDCB0F1804F52
:104D100019D040F20043C4F20003984213D040F689
:104D20000003C4F2000398420DD011E040F60043A6
:104D3000C4F20003984206D0604504D00023C4F2B8
:104D40000103984204D14B6825F0700243EA020542
:104D500041F6FF73C4F2000398420FDC704521DC7A
:104D6000B0F1804F41D040F20043C4F200039842BA
:104D70003BD040F60003C4F2000334E043F6FF7377
:104D8000C4F2010398421EDC42F20003C4F20003A5
:104D900098422AD00023C4F20103984225D06045EE
:104DA00023D027E040F60043C4F2000398421CD011
:104DB00041F60003C4F20003984216D041F60043C6
:104DC000C4F200030FE044F20003C4F2010398426E
:104DD0000BD044F60003C4F20103984205D044F21C
:104DE0000043C4F20103984204D1CB6825F4407219
:104DF00043EA02050A688C684B69C46240F4806427
:104E00008262644504BF09690163026825F080017C
:104E100042F0040219430260012242610160B0BD08
:104E200010B582B040F2D874C2F200042046FBF7FD
:104E30007DFF2046FCF778FE20460221FCF768FA49
:104E400040F60004C2F200042046FBF76FFF204644
:104E5000FCF76AFE20461021FCF75AFA40F6085487
:104E6000C2F2000420681E22C16841F01001C16036
:104E700045F26031C2F200012046FDF77FFEE06B93
:104E80000068016821F00801016001F095F940F225
:104E9000983C44F25110C2F2000C0324C0F600000A
:104EA0001EA14FF4C8720023CDE9004C02F0DEFAD7
:104EB00040F2982C43F28560C2F2000CC0F600006C
:104EC00018A140F6FE120023CDE9004C02F0CEFA04
:104ED00040F2902C41F21D10C2F2000CC0F600000E
:104EE00013A14FF480720023CDE9004C02F0BEFA0A
:104EF00040F28C2C40F6ED00C2F2000CC0F600002F
:104F00000FA14FF4C8720023CDE9004C02F0AEFAB5
:104F100002B0BDE8104001F073B900BF52656D6F7B
:104F2000746500004869745F5461736B0000000091
:104F3000436F6E74726F6C5F52656D6F74650000C5
:104F400042616C6C5F6261636B00000040F6C040C0
:104F5000C2F20000FDF72ABF40F60850C2F200007E
:104F6000FDF724BF806B0021C185FDF7D5BE000091
:104F7000806B0168496990F84120212A11D111F014
:104F800080010ED00021C184016851E8031F02682E
:104F900021F0C00142E80313002BF5D1202180F855
:104FA00041100168496990F84220222A2BD111F062
:104FB000400128D00021C185016851E8031F026823
:104FC00021F4907142E80313002BF5D1016851E8F8
:104FD000051F026821F0010142E80513002BF5D1FD
:104FE000016B01290AD100BF016851E8031F026863
:104FF00021F0100142E80313002BF5D1202180F8A5
:10500000421000210163416C41F010014164FDF741
:1050100083BE00000168806B0968C90530D4002197
:10502000C18500BF016851E8031F026821F4807147
:1050300042E80313002BF5D1016851E8051F02680F
:1050400021F0010142E80513002BF5D1016851E878
:10505000051F026821F0400142E80513002BF5D13D
:10506000202180F84210016B012909D1016851E823
:10507000031F026821F0100142E80313002BF5D151
:1050800000214163016B012918BFFEF7A7BA818D8A
:10509000FDF7A8BD806B01214163016B012918BF99
:1050A000FEF79EBA818D4908FDF79CBD0168806BB3
:1050B0000968C90548BFFEF7DFBA0021C18400BFF7
:1050C000016851E8051F026821F0800142E80513DC
:1050D000002BF5D1016851E8031F026841F040013F
:1050E00042E80313002BF5D170470000806BFEF7F8
:1050F000C5BA000090F84210222918BF7047826894
:10510000B2F5805F02D1016900294AD0816AB2F507
:10511000805F07D00AB9026922B10268526802F0C2
:105120007F0201E0026852680A70816A013181627F
:10513000C18D01390A04C18500D070470168CA6871
:1051400022F02002CA60CA6822F48072CA604A69EA
:1051500022F001024A61202180F8421000214163BF
:10516000026B012A18BFFEF739BA81B0016300BF94
:10517000016851E8031F026821F0100142E803139F
:10518000002BF5D101680A68D20606D500220092EC
:105190000A680092496800910099818D01B0FDF77D
:1051A00021BD0168826A49686FF35F2122F8021B02
:1051B0008262BDE7B0B50446006804F108030ECB77
:1051C0000569194325F440552A4302616269E36980
:1051D0001143C268194349F20C639A431143C160F9
:1051E0004169A26921F4407141F20043114340F446
:1051F0008062C4F201039A42416102D1FDF786F94F
:1052000001E0FDF76FF9E1694FF69C7563681922BB
:10521000C0F6FF75B1F5004FA0FB02011CD15A008A
:10522000DB0FFBF7B1F848F21F51C5F2EB11A0FB01
:1052300001235A0905F1805302FB0300322303EBDB
:10524000C000A0FB01014FF4F87000EA111000EB60
:105250000210C1F3421118E09A009B0FFBF794F87B
:1052600048F21F51C5F2EB11A0FB01235A0902FBC2
:105270000500322303EB0010A0FB0101F02000EA3F
:10528000511000EB0210C1F34311084421688860FB
:10529000B0BD0000F0B581B013460027044681621E
:1052A00083854764222084F84200E06B45F21505AF
:1052B00045F295060A462168C0F60005C0F60006CC
:1052C000C0E90F5644F67176C0F600060431C0E915
:1052D0001367FCF71BFE38B110206064202084F8AF
:1052E0004200012001B0F0BD0097206801680091E4
:1052F000406800900098206950B100BF206850E8D5
:10530000030F216840F4807041E80302002AF5D1C0
:10531000206850E8050F216840F0010041E80502CF
:10532000002AF5D1206850E8050F216840F04000C0
:1053300041E80502002AF5D1002001B0F0BD0000CF
:1053400040F63040C2F20000FDF730BD40F6784034
:10535000C2F20000FDF72ABD40F65050C2F2000034
:10536000FDF724BDFEE700002DE9F041076809685C
:105370003F68B9423AD14168D7B28F4236D16FF017
:10538000080151FA92F2122A4FF0000100F2C28095
:10539000DFE802F00AC0C0C0C04F2F6FC0C0C0C05D
:1053A000C0C0C0C0C0C0A9001968044609BA816065
:1053B00099881D46C9BA084602F056FD9FED580B64
:1053C00053EC102B02F068FD02F0C0FBE060E888AF
:1053D0002646C0BA02F048FD9FED570B53EC102B48
:1053E00002F05AFD41EC100B10248DE00020BDE8C6
:1053F000F0811968074609BA0846984602F034FD5C
:105400009FED4B0B54EC105B2A46234602F044FD03
:1054100002F09CFBF861D8F804003E4600BA02F0A6
:1054200023FD2A46234602F037FD41EC100B2024D1
:105430006AE01968074609BA0846984602F014FD62
:105440009FED3B0B54EC105B2A46234602F024FDF3
:1054500002F07CFB7861D8F804003E4600BA02F006
:1054600003FD2A46234602F017FD41EC100B1824D9
:105470004AE019880746C9BA0846984602F0F4FC83
:105480009FED270B54EC105B2A46234602F004FDE7
:1054900002F05CFB7862B8F80200C0BA02F0E4FCEB
:1054A0002A46234602F0F8FC02F050FBB862B8F836
:1054B0000400C0BA02F0D8FC2A46234602F0ECFCF5
:1054C00002F044FBF862B8F806003E46C0BA02F0AB
:1054D000CBFC9FED150B53EC102B02F0DDFC41ECE7
:1054E000100B382410E01968064609BA4163988801
:1054F000C0BA02F0B9FC9FED0A0B53EC102B02F07E
:10550000CBFC41EC100B302451EC100B02F01EFBD5
:10551000012130510846BDE8F08100BF00BF00BF47
:105520009A9999999999B93F7B14AE47E17A943F3A
:105530002D431CEBE2361A3FFCA9F1D24D62503FDD
:1055400080B588B09FED141A002220EE010ABDEE4E
:10555000C00A10EE101A0592D0E9000302928DF8ED
:105560001C200A0E8DF804200A0C4FF0040C43F4A2
:1055700080738DF805200A0ACDE9033C8DF80620DA
:105580008DF8071002A901AA6B46CDF818C0FBF7E9
:10559000D3FE08B080BD00BF00007A44FCF7F0FDE8
:1055A000FFF744FBFEF738FAFEF7ACF9FEF76AF9AD
:1055B000FEF788F9FEF7D2FAFEF70CFBFEF792FA37
:1055C000FEF7AEFAFEF7E8FA00F016F8FEF708FA72
:1055D00000F026F8FEE70000EFF3058100291CBF6C
:1055E0006FF005007047002804BF0020704780B5A9
:1055F00000F032FF002080BDEFF3058000281CBFC3
:105600006FF00500704740F29C20C2F20000016874
:10561000002911BF4FF0FF300121016000207047C9
:10562000EFF3058000281CBF6FF00500704740F2C3
:105630009C20C2F20000016801291CBF4FF0FF301E
:10564000704780B54EF61F51CEF2000100220A705D
:105650000221016001F062F9002080BD70B584B0C4
:105660000B46002100280391EFF3058150D000295B
:105670004ED142B3D2F818E0BEF1000F08BF4FF090
:10568000180EBEF1380F1BD81179C90718D155690A
:10569000946811684FEA950C002D08BF4FF0800CFC
:1056A00044B1D6685C2E04D31669002E18BF002DB5
:1056B00020D10CB9D468C4B1002500245DB91DE027
:1056C000002004B070BD012400214FF0180E4FF0EF
:1056D000800C002595B1946812690294CDE900E22E
:1056E000624601F031FF039012E01469B4FA84F4C9
:1056F0006409EEE700240125002DECD144B103AC90
:105700001FFA8CF2CDE900E401F0B0FE012802D1CD
:10571000039804B070BD0020E5E700002DE9F047D4
:10572000044600F049FD45F28430C2F200000168F1
:1057300040F6BC6701310160C2F20007396845F6E6
:10574000303A40F6D466C2F2000AC2F2000651B105
:10575000DAF8000000283ED13868E16AC06A884261
:1057600098BF3C6037E03C600068012833D10025D9
:10577000701900F0DBFC1435B5F58C6FF8D145F6E7
:105780009428C2F20008404600F0D0FC45F6A82953
:10579000C2F20009484600F0C9FC45F6DC20C2F21E
:1057A000000000F0C3FC45F65030C2F2000000F0EB
:1057B000BDFC45F63C30C2F2000000F0B7FC40F6FC
:1057C000C460C2F20000C0F8008040F6CC60C2F2B3
:1057D0000000C0F8009045F29030C2F2000001686D
:1057E00001310160616445F29431C2F20001E06A66
:1057F0000A68904288BF086000EB800006EB8000DA
:10580000211D00F0C1FC00F0FBFCDAF8000088B1BB
:105810003868E16AC06A884228BFBDE8F0874EF662
:105820000450CEF200004FF080510160BFF34F8F63
:10583000BFF36F8FBDE8F08770B582B000F0BCFC9D
:1058400045F66836C2F20006306850BB45F668245B
:10585000C2F20004204600F069FC45F67C25C2F245
:105860000005284600F062FC40F6C060C2F200006D
:10587000046040F6D060C2F2000040F6C85240F624
:10588000686305600025C2F20002C2F200030A202C
:105890001021009501F010FA306010B103A100F062
:1058A0007FFD02B0BDE8704000F0AABC546D72519B
:1058B0000000000045F2883540F6D46A4EF60458E0
:1058C00045F6503745F28436C2F20005C2F2000AAE
:1058D000CEF200084FF08059C2F20007C2F2000673
:1058E00003E000BF204600F0A3FC2868C8B100F028
:1058F00063FCF868C468201D00F0EAFB30680138DA
:10590000306028680138286000F07AFC94F859006B
:105910000228EAD00128E5D070B9206B00F088FC9D
:10592000E0E7DAF800000228DFD3C8F80090BFF300
:105930004F8FBFF36F8FD8E74FF0500080F311887F
:10594000BFF36F8FBFF34F8FFEE70000084800687A
:10595000006880F308884FF0000080F3148862B676
:1059600061B6BFF34F8FBFF36F8F00DF00BF000042
:1059700008ED00E02DE9F04F85B0824601F074FE9D
:1059800040F6B869C2F20009D9F80010054688420D
:1059900049D240F6C064C2F20004206801680029C0
:1059A00043D045F6683BC2F2000B08E078602068FF
:1059B00031463F6100F0CAFB20680168A9B3C068A6
:1059C000C768D0F800803E1D304600F081FB396A80
:1059D0003846884797F828004007EDD5B869404415
:1059E0004045E3D88FB3DBF8000078B10020CDE963
:1059F0000108039701F024FEDBF8000001A9002252
:105A0000002301F0C7F90028D6D102E000200028C9
:105A1000D2D14FF0500080F31188BFF36F8FBFF3E6
:105A20004F8F00BFFEE7002007E040F6D061C2F2D2
:105A300000010A68086001202260CAF800002846B8
:105A4000C9F8005005B0BDE8F08F4FF0500080F36A
:105A50001188BFF36F8FBFF34F8F00BFFEE70000C9
:105A600081B00020009040F22420C2F200000068C3
:105A70004FF0500181F31188BFF36F8FBFF34F8F49
:105A8000013001D0FEE700BF00980028FCD001B033
:105A9000704700008AB040F6C06B40F6D06A45F609
:105AA0006835C2F2000B02ACC2F2000AC2F2000575
:105AB0000DF10409DBF8000007681FB1C068D0F8D9
:105AC000008001E04FF0000800F07AFF2046FFF769
:105AD00051FF029911B101F065FF83E0E7B1804504
