:020000040800F2
:10000000306100207D020008553B0008A936000839
:10001000AD3A0008ED0B0008D151000800000000C7
:10002000000000000000000000000000C1480008BF
:100030006D12000800000000013C0008A54A0008FD
:10004000970200089702000897020008970200082C
:10005000970200089702000897020008970200081C
:10006000970200089702000897020008F51100089F
:10007000011200080D1200081912000825120008CC
:10008000311200083D12000897020008FD0B00081D
:10009000F10B000897020008970200089702000879
:1000A00097020008814B0008970200089702000899
:1000B00097020008970200089702000897020008BC
:1000C00097020008970200089702000897020008AC
:1000D0009702000897020008AD510008B9510008C6
:1000E000970200089702000897020008970200088C
:1000F00097020008970200089702000849120008BA
:10010000970200089702000897020008970200086B
:10011000B94D0008C54D0008970200089702000875
:10012000970200085512000897020008970200087D
:10013000970200089702000897020008150C0008B3
:1001400097020008090C00089702000897020008AF
:10015000970200086112000897020008C5510008C4
:10016000970200089702000897020008970200080B
:10017000970200089702000897020008000000009C
:10018000970200089702000800F002F800F066F8F5
:1001900014A696E8000CB244B344DA4501D100F04D
:1001A0005DF8BAE80F000FA696E83000A5EB04054D
:1001B00004EB0607AAEB0704A7F101074FEA1515A0
:1001C0004FEA3414A4F10104AC4201D300F046F824
:1001D00013F0010F18BFFB1A43F0010300F001F800
:1001E000DBE71847987E0000B87E00000A4410F84C
:1001F000014B14F00F0508BF10F8015B240908BF7C
:1002000010F8014B6D1E05D010F8013B6D1E01F872
:10021000013BF9D1641E03D0641E01F8015BFBD1E0
:100220009142E4D37047000070470000002300248F
:1002300000250026103A28BF78C1FBD8520728BFF6
:1002400030C148BF0B6070471FB507F0CCFE9DE87A
:10025000030000F0B7F91FBD10B510BD00F040FA63
:100260001146FFF7F1FF05F0D1F800F05EFA03B494
:10027000FFF7F2FF03BC00F08FFA00000948804747
:1002800009480047FEE7FEE7FEE7FEE7FEE7FEE778
:10029000FEE7FEE7FEE7FEE704480549054A064B90
:1002A000704700006D4B000889010008305B00209A
:1002B00030610020305D0020305D002070B50646C2
:1002C00000F064F9056806F10B0020F00704B44261
:1002D0009CBF002070BD2B466A68BAB11068A0426E
:1002E00010D304F1080188423CBF5068586007D31E
:1002F0005168101941601168091B01605860146051
:10030000101D70BD13465268002AE7D121462846C9
:1003100000F044F90028DED170BD70B50446051F19
:1003200000F034F90068002C14BF446870BD002C44
:1003300018BFAC423CBF20466468F8D301680A1875
:10034000AA4218BF456003D12A68054611440160DE
:1003500028684119A1421CBF6C6070BD616869606A
:1003600021680844286070BD53EA020C00F06980DF
:100370002DE9F04B4FF00006002B1FBFB3FA83F5B9
:1003800003FA05F424FA05F65E4012BF1643B2FAEA
:1003900082F502FA05F4C5F120051EBF22FA05FC1C
:1003A00044EA0C04203556EA044C4FEA144418BFC2
:1003B000641C4FF000084FF00009904271EB030CF1
:1003C00039D3002919BFB1FA81F701FA07F6B0FA5B
:1003D00080F700FA07F6C7F120071EBF20FA07FCD6
:1003E00046EA0C062037B6FBF4FCA7EB0507103FE6
:1003F00007F01F0BCBF120062CFA06F60CFA0BFBCC
:1004000044BFB3460026202FA4BF5E464FF0000B2A
:100410005BEA060C08BF4FF0010B19EB0B0948EB28
:100420000608ABFB027C06FB02CC0BFB03CCC01B1B
:1004300071EB0C01C1E70B46024641464846BDE858
:10044000F08B13B5084318BF4FF0FF300146AFF3F0
:100450000080BDE81C407047032A40F2308010F055
:10046000030C00F0158011F8013BBCF1020F62444F
:1004700098BF11F801CB00F8013B38BF11F8013BE0
:10048000A2F1040298BF00F801CB38BF00F8013B8D
:1004900011F0030300F0CB80083AC0F0088051F857
:1004A000043B083A51F804CBA0E80810F5E7121D08
:1004B0005CBF51F8043B40F8043BAFF30080D20727
:1004C00024BF11F8013B11F801CB48BF11F8012BF3
:1004D00024BF00F8013B00F801CB48BF00F8012B16
:1004E000704702F0FF0343EA032242EA024200F0AF
:1004F00024B84FF000020429C0F0128010F0030C61
:1005000000F01B80CCF1040CBCF1020F18BF00F806
:10051000012BA8BF20F8022BA1EB0C0100F00DB8B5
:100520005FEAC17C24BF00F8012B00F8012B48BF13
:1005300000F8012B70474FF0000200B513469446B7
:100540009646203922BFA0E80C50A0E80C50B1F12B
:100550002001BFF4F7AF090728BFA0E80C5048BF3F
:100560000CC05DF804EB890028BF40F8042B08BFDD
:10057000704748BF20F8022B11F0804F18BF00F8D9
:10058000012B704770477047704700000048704764
:1005900098010020704770477047704738B504468F
:1005A0000A4600206946AFF30080002808BF38BD26
:1005B00002460099204600F071F8012038BD012064
:1005C00000F086B8F8B5AFF30080054600200C4671
:1005D0000C2000BF0646A819A0420DD93246694634
:1005E0000020AFF30080070008BF00F071F800980A
:1005F000A04218BF0546C419FFF7C8FF05600746AB
:10060000F01D20F007004619284600F00AF8B44211
:1006100008BFF8BDA21B31463868BDE8F84000F0BD
:100620003DB800210160416070470C20704710B553
:10063000203AC0F00B80B1E81850A0E81850B1E89B
:100640001850A0E81850203ABFF4F5AF5FEA027CDA
:1006500024BFB1E81850A0E8185044BF18C918C00A
:10066000BDE810405FEA827C24BF51F8043B40F8AB
:10067000043B08BF7047D20728BF31F8023B48BF90
:1006800011F8012B28BF20F8023B48BF00F8012BCE
:100690007047000000487047900100200346406802
:1006A0008C46002818BF88423CBF03464068F8D3F8
:1006B00018681844884207D00CF1030020F00700A6
:1006C000001D411A521A0146081D0A60FFF725BE97
:1006D00010B500F039F8BDE8104000F02FB87047B1
:1006E0007546FFF7D7FFAE4605006946534620F032
:1006F0000700854618B020B5FFF7CEFDBDE82040C5
:100700004FF000064FF000074FF000084FF0000BCD
:10071000AC46ACE8C009ACE8C009ACE8C009ACE83C
:10072000C00921F007018D46704710B50446AFF3AC
:1007300000802046BDE81040FFF799BD002801D099
:1007400000F02AB87047000010B5012805D000213C
:1007500003A000F027F8012010BD09A1F8E7000070
:1007600053494752544D454D3A204F7574206F669A
:100770002068656170206D656D6F72790000000002
:100780003A2048656170206D656D6F727920636FE6
:10079000727275707465640001491820ABBEFEE783
:1007A0002600020070B505460C460A2000E06D1CCC
:1007B00000F011F835B128780028F8D102E0641C67
:1007C00000F009F814B120780028F8D1BDE8704095
:1007D0000A20AFF3008008B569468DF800000320B9
:1007E000ABBE08BD88B006F077FE41F2A05541F2DD
:1007F000204741F2A46BC2F20005C2F200070024B8
:10080000C2F2000B0DF1040A07900DE041F2A05571
:10081000C2F20005286800210022002306F0F2F948
:1008200007A8042105F0A6FD28684FF0FF3106F067
:1008300023FC00F03BFA44F6D351C1F26201A0FB65
:1008400001018E094FF000080BE0D9E906200021D4
:10085000904789F8104000BF08F13008B8F5C07F14
:10086000D4D007EB080999F810000028F4D0D9E992
:100870000201321A57F8080064EB0101121A71F1F3
:100880000001E9DB99F828100029DED099F8222030
:10089000D9E906358DF80620D9F8242001390292CD
:1008A000B9F820200490DBF8000005938DF80C10B7
:1008B000ADF80420514600220023069506F0A2F967
:1008C000012808BF89F81040C6E7000082B040F256
:1008D000004540F6B830C4F2020505F0F5FC40F2E0
:1008E000002640F26474C2F20006C2F200043046F0
:1008F00021460122032303F0C1FD40F26827C2F222
:100900000007384621460222032303F0B7FD642086
:1009100005F0DAFC3046002103F0AEFF3846002136
:1009200003F0AAFF642005F0CFFC304603F08CFDF5
:10093000384603F089FD642005F0C6FC304603F01C
:100940007FFF384603F07CFF306940F21801C2F2A5
:1009500000014860386940F24008C2F20008C8F857
:10096000040006F0B9FD05F5806B40F2083541F250
:10097000A86641F2D86440F2040A9FED9B8AC2F255
:100980000005C2F20006C2F20004C2F2000A0190A1
:1009900004E000BF01A8022105F0ECFCA1463446AA
:1009A00040F20046C4F2020630464FF4805101F096
:1009B00053FB40F64457C2F20007387030464FF4FC
:1009C000005101F049FB40F64551C2F200010870A8
:1009D0005846042101F040FB40F64651C2F20001A6
:1009E00008705846082101F037FB397801290FD0EB
:1009F00040F64551C2F200010978012908D040F6BD
:100A00004651C2F200010978012901D0012801D123
:100A1000012028702878264601284C464CD141F206
:100A20000870C2F200000078002845D140F2002092
:100A300040F28017C2F20000C2F2000790ED049A63
:100A400090ED05AA9AED01BA97ED00CA06F044FDB3
:100A500001463046B0EE490AF0EE4A0AB0EE4B1AB3
:100A6000F0EE481AB0EE4C2A00F072FB40F268201B
:100A7000C2F2000090ED049A90ED05AA40F22C001D
:100A8000C2F2000090ED01BA97ED00CA06F024FD15
:100A900001462046B0EE490AF0EE4A0AB0EE4B1A83
:100AA000F0EE481AB0EE4C2A00F052FB41F2087109
:100AB0000120C2F2000108702878012871D194F851
:100AC000200096F82010C0B208433DD006F004FD87
:100AD0005F46AB4641F2CC65C2F2000501463046A6
:100AE0002A4600F0D3FA06F0F7FC41F2FC69C2F2A4
:100AF0000009014620464A4600F0C8FAD5EC020A31
:100B00009AED000ADAED031A9AED042A40F2002069
:100B1000C2F2000001215D46BB4603F0B5FC40F285
:100B20002C00C2F20000D9EC020A90ED000AD0EDD0
:100B3000031A90ED042A40F26820C2F2000002215C
:100B400003F0A2FC2DE000BFD6ED060ADAED031A91
:100B50009AED042A40F20020C2F200000121B0EE1A
:100B6000480AB0EE481A03F08FFC40F22C00C2F2A3
:100B70000000D4ED060AD0ED031A90ED042A40F2ED
:100B80006820C2F200000221B0EE480AB0EE481A16
:100B900003F07AFC41F208710020C2F200010870F3
:100BA000287040F25C70C2F20000007800287FF4E8
:100BB000F1AE287800287FF4EDAE40F21800C2F2C2
:100BC000000090EC050A40F20020C2F20000012172
:100BD00003F05AFC98EC050A40F26820C2F20000CB
:100BE000022103F051FCD5E600000000FEE7000002
:100BF00040F26470C2F2000000F09CBC40F26470ED
:100C0000C2F2000000F096BC40F28C70C2F200000C
:100C100000F090BC40F28C70C2F2000000F08ABC80
:100C200010B588B00B4600210791CDE90511CDE93B
:100C30000311CDE90111016846F2004201ACC4F292
:100C40000002891A224618BF012100F0E5FB039833
:100C5000002818BF0434206808B010BD80B58AB0E1
:100C600001220792026846F20043C4F20003002109
:100C70009A424FF00E030691CDE90011CDE9021121
:100C8000099308D046F60001C4F200018A4205D15A
:100C900001220E2100E00022CDE90421012108916A
:100CA000694600F047FB0AB080BD000006F014BCA6
:100CB000F0B583B048B340F20C34C2F200040546EC
:100CC00020464FF48461FFF736FC01200021032207
:100CD000256005F0E7FEC4F814040A204FF4817182
:100CE000002205F0DFFED4F81414C4F81004002923
:100CF00018BF00280DD111B1084605F09DFAD4F8AF
:100D00001004002818BF05F097FA0024204603B00D
:100D1000F0BD40F2607740F69160C2F2000704F245
:100D20000C450626C0F600000AA14FF400722346C7
:100D30003C60CDE9006506F0D1FA0128E6D0D4F890
:100D4000140405F079FAD4F8100405F075FA0024BB
:100D50003C60DBE7436F6D6D547800002DE9F04F88
:100D600085B000284FF0FF34029300F08D800D46CF
:100D7000002900F089809346002A00F0858007460C
:100D800006F0AAFB0190381D04900298002401305F
:100D90004FF00009039000BF05F046F9B7F808646A
:100DA000E6B3ABEB0900B7F8061480B2B04238BF27
:100DB0000646C1F580601FFA80FAB046B245B7F822
:100DC000060438BFD04604992C44014420464246CC
:100DD000FFF742FBB7F80604564540446FF39F20E7
:100DE000A7F8060413D9B7F80614049BAA46A6EB85
:100DF0000805AAB204EB08001944FFF72DFBB7F869
:100E00000604284455466FF39F20A7F80604B7F858
:100E10000804801BA7F8080401E000BF002605F0C5
:100E200027F91EB1B144022022E000BF0398B0B1FF
:100E300006F052FB0199401A0299081A4FF47A7190
:100E400001FB00F044F6D351C1F26201A0FB0102A4
:100E50004FF0FF3188BF910903D8012008E04FF01F
:100E6000FF31D7F8140406F007F9013818BF012044
:100E700040F00200022805D11FFA89F45C45FFF416
:100E80008BAF01E04FF0FF34204605B0BDE8F08F96
:100E9000F0B5C1B050B3044606F004FB0DF10205F5
:100EA00001260027C4F818040CE000BF84F81C6475
:100EB0002068BDF80221294602F098FB002818BFDF
:100EC00084F81C74D4F8100429464FF0FF3205F062
:100ED000FFFF0128F6D100BF94F81C040028E5D0DC
:100EE00001204FF0FF3104F0C3FFF5E7002041B0CF
:100EF000BDE8F04005F0B6BA2DE9F04782B0002712
:100F00000028019718BF002902D102B0BDE8F08780
:100F1000002AFAD0002BF8D007688F42F5D1EFF302
:100F200011884FF0500181F31188BFF36F8FBFF329
:100F30004F8FB0F80814C1F580618FB2BB4213D94E
:100F4000591AB0F808748EB2BE4288BFB0F80814BF
:100F5000B0F806740F446FF39F27A0F80674B0F83A
:100F60000874791AA0F80814B0F804141C46C1F5E6
:100F700080618EB29E4238BF3446B0F80414051D1D
:100F80002944824608469146114622461F46FFF7ED
:100F900063FABAF804243946224450466FF39F227C
:100FA000B742AAF8042411D9B0F804040E1BB2B257
:100FB000284409EB0401FFF74FFABAF80424394634
:100FC000324450466FF39F22AAF80424B0F8082454
:100FD0001144A0F8081488F31188D0F8140410B153
:100FE00001A905F019FF019800288ED04EF6045093
:100FF000CEF200004FF080510160BFF34F8FBFF37E
:101000006F8F02B0BDE8F087F0B1A2F2011313F5C3
:10101000807F19D3C1B10368002B08BF7047B0B5FA
:10102000C2B001AB054618461446FFF715FAD5F8CD
:101030001004ADF8044120B101A90022002305F0FD
:10104000E1FD42B0BDE8B0407047000040F2D0245E
:1010500040F64C55C2F20004C2F200050AE000BF9F
:10106000208B04F10C02A88107CA85E80700012043
:1010700005F02AF903F062F9E07C0128F0D1E87963
:101080000028EDD103F0E8FCEAE7000090F82030FA
:1010900013B1C369994208D2806900219FED2B0AE0
:1010A000C2E9000182ED020A7047C91A00EE101A67
:1010B0009FED251AB8EE400A90ED042A20EE010AB1
:1010C000B4EE420AF1EE10FA38DA90ED033A90ED00
:1010D000024A20EE035A90ED012A20EE055A20EE36
:1010E000046A20EE066A25EE005A90ED001A35EEED
:1010F000065A22EE006A36EE055A31EE051A82EDE6
:10110000001AB0EE081A23EE011A20EE011A34EE8E
:10111000044A20EE045A21EE001A31EE051A32EE8E
:10112000011A82ED011AB1EE081A23EE011A21EE1E
:10113000000A30EE040A82ED020A7047002180F8AE
:1011400020108069AAE700BF6F12833A00000000F8
:101150009FED253A9FED254AB4EE432AF1EE10FAB1
:10116000B8BFB0EE432A9FED223AF4EE441AF1EEF6
:1011700010FAC8BFF0EE441AF4EE431A30EEA04A5B
:10118000F1EE10FAB8BFF0EE431A31EE403A34EE09
:10119000214AB0EE085A24EE024A23EE053A30EE18
:1011A000415A30EEA16A33EE443A22EE024A22EE70
:1011B000066A35EE055A83EE043A35EE065A22EEFB
:1011C000044A85EE044AC161012180ED042A80EDC4
:1011D000050A80ED061A80F8201080EC020A80EDE6
:1011E000023A80ED034A7047CDCC4C3D48E149427C
:1011F00048E149C240F67400C2F2000000F0AEBC03
:1012000040F6F410C2F2000000F0A8BC40F2B47046
:10121000C2F2000000F0A2BC40F65420C2F200006E
:1012200000F09CBC40F61400C2F2000000F096BC36
:1012300040F63410C2F2000000F090BC40F694106A
:10124000C2F2000000F08ABC40F6D400C2F20000F6
:1012500000F084BC40F6B420C2F2000000F07EBC76
:1012600040F61430C2F2000000F078BC7047000075
:1012700072B600BFFEE7000090F82020013A012A74
:1012800004D8006800F11402002004E000F12402F8
:1012900001204FF48021136819431160704700004A
:1012A00010B590F820E0D0F800C0AEF1010EBEF10C
:1012B000010FDCF808E011D81EF0E05F14D0CEF387
:1012C00001640120A04018608B689BB1D1F804E054
:1012D000C86840EACE0040EA030E0FE000F12403A4
:1012E00001204FF4802121E000F1240301204FF47C
:1012F00000111BE00868CB6843EA405E0CF5C07043
:1013000000EB0413240140F804E00C69184640F88F
:10131000044F097D012903D1016841F48071016006
:1013200050680121D8601068986000201A68114345
:10133000196010BD90F82020013A012A30D8B0B5CC
:1013400046F20060C4F20000026842F0010202604E
:10135000026822F47C520260D1F814E0CC694A6A37
:101360000368012C43EA022202600EF01F024FF0D4
:10137000010303FA02F2C3696FEA020C23EA0203D3
:10138000C36113D02CBBC36803EA0C03C360CB68F2
:101390008C8844EA034300EBCE0423640B4611E03F
:1013A000416A41F48021416201207047C3681343C0
:1013B000C3600B688C8844EA034300EBCE042364CB
:1013C00001F10C038C681B8843EA044300EBCE0454
:1013D000636443688D6943EA0204D1F810E0096A46
:1013E000002D08BF03EA0C0444604369BEF1000FFE
:1013F00043EA020408BF03EA0C040129446102D154
:10140000C1691143C161016821F00101016000203F
:10141000B0BD000070470000B0B590F82040013C1E
:10142000012C78D8046800290CBFE4682469A4075B
:1014300077D004684FEA011C04F5D87555F80C40C4
:1014400014F00404946055F80CE005EB011C19BF7E
:101450004FEADE0555604FEA5E551560DCF8005036
:10146000E64605F00205D5605EF8044F24075ABF32
:10147000DEF8004004F00F0408241461DEF8004098
:101480000029C4F307249461DEF800504FEA1545A3
:101490005561DCF808201A70026802EB0112D2F8DC
:1014A000B8214FEA12225A70026802EB0112D2F8F8
:1014B000B8214FEA12429A70026802EB0112D2F888
:1014C000B8214FEA1262DA70026802EB0112D2F818
:1014D000BC211A71026802EB0112D2F8BC214FEA5A
:1014E00012225A71026802EB0112D2F8BC214FEAB3
:1014F00012429A71026802EB0112D2F8BC214FEA43
:101500001262DA7100680CBF00F10C0100F11001E9
:10151000002020220AE000F1240101204FF4802263
:1015200004E000F1240101204FF400120B681A437B
:101530000A60B0BD2DE9F04F81B0044600684669ED
:10154000D0F804908768D0F80CB0D0F810A0D0F88C
:101550001880F10703D1002530071CD423E0F907D8
:1015600010D00121BA07816009D4780700F1AA8060
:10157000380700F1B080204600F090FA02E02046E3
:1015800000F08EFA0025F80500F18480F80300F1E0
:10159000AA80300707D51BF0100004D0206845F45E
:1015A00000751021C160700708D51BF0080005D038
:1015B00020680821C160204600F0ECF9B00706D58C
:1015C0002068C068800702D0204600F0E5F9700668
:1015D00007D51AF0100004D0206845F4806510216A
:1015E0000161B00608D51AF0080005D0206808216E
:1015F0000161204600F0F0F9F00606D52068006988
:10160000800702D0204600F0E9F9B00308D519F0B0
:10161000100005D0206810214160204600F00EFA2D
:10162000F00308D519F0080005D0206808214160B2
:10163000204600F03FFA300440F18F805FEA4970A5
:1016400040F1888006F4807008EA102028435FEAA1
:101650008871014648BF41F00201B20558BF0146FA
:101660005FEA48700D4648BF45F00405700558BF55
:101670000D4630056ED518F070006BD0103800099B
:10168000052862D8DFE800F0035C5659535F45F047
:1016900008055AE020684FF48071BA0581600AD4C9
:1016A000780512D4380519D4204600F0FBF9F80368
:1016B0007FF56FAF17E0204600F0F6F9F8037FF5ED
:1016C00068AF10E04FF400655DE705F50055F803DD
:1016D0007FF55FAF07E04FF4805554E705F580458F
:1016E000F8037FF556AF20684FF48031BA0381606C
:1016F0000AD478030FD4380313D4204600F0D6F967
:1017000030073FF548AF4EE7204600F0D1F93007EB
:101710003FF541AF47E705F5004530073FF53BAFE3
:1017200041E705F5803530073FF535AF3BE745F03C
:1017300080050AE045F0200507E045F0400504E09B
:1017400045F0100501E045F480752068816921F0BD
:10175000700181612068042141604DB1606A40EAF6
:1017600005012046616201B0BDE8F04FFFF752BEAF
:1017700001B0BDE8F08F0000002804BF01207047D1
:10178000B0B5044690F8200010B9204600F06EF87D
:101790002068016841F00101016000F069FC054624
:1017A00020684168C90705D100F062FC401B0B2886
:1017B000F6D310E0016821F00201016000F058FC4E
:1017C000054600BF2068416889070DD500F050FC30
:1017D000401B0B28F6D3606A052140F4003060629C
:1017E000012084F82010B0BD217E0268012922F07A
:1017F000800208BF80320260617E0268012922F007
:10180000400208BF40320260A17E0268012922F036
:10181000200208BF20320260E17E0268012922F026
:10182000100218BF10320260217F0268012922F0E5
:10183000080208BF08320260617F0268012922F0B5
:10184000040208BF04320260D4E901C2D4E90335BE
:1018500061691A432A431143ACF101021143C1618A
:1018600000200121606284F82010B0BDB0B586B0C0
:10187000006846F60002C4F2000200219042CDE961
:101880000411CDE9021101912FD046F20041C4F2BA
:10189000000188427BD140F2F811C2F200010A68CF
:1018A00043F64000C4F20200531C0B6052B9002101
:1018B0000091016841F000710160016801F0007160
:1018C000009100990021009150F8101C142441F05F
:1018D000020140F8101C50F8100C132500F0020013
:1018E000009000984FF4407031E043F64000C4F29D
:1018F00002000091016841F080610160016801F01F
:1019000080610091009940F2F811C2F200010A686A
:10191000531C0B6052B900210091016841F0007125
:101920000160016801F000710091009900210091AF
:1019300050F8101C412441F0020140F8101C50F8EE
:10194000100C3F2500F002000090009860200190EC
:1019500002200290002003900320049009200590AB
:1019600040F20040C4F2020001A900F0ABFA2846A0
:101970000521002200F036FC284600F021FC20461C
:101980000521002200F02EFC204600F019FC06B0D4
:10199000B0BD00007047000070B582B040F26474C2
:1019A000C2F200046D4620462946FFF739F9064683
:1019B00040F20020C2F20000214632462B4602F0DF
:1019C0006FFE40F26820C2F20000214632462B46EC
:1019D00002F066FE02B070BD7047000070B582B0C4
:1019E00040F28C750020C2F200056C46CDE9000083
:1019F00028462146FFF714F9064640F25C00C2F281
:101A00000000243029463246234603F0E5FB40F22D
:101A1000BC00C2F20000243029463246234603F0BF
:101A2000DBFB40F21C10C2F2000024302946324693
:101A3000234603F0D1FB02B070BD000070470000E8
:101A4000B0B5044690F8200001281DD1022084F88A
:101A500020002068016821F00101016000F008FB0E
:101A6000054600BF20684068C00713D000F000FBA7
:101A7000401B0B28F6D3606A40F4003060620520FA
:101A800084F820000120B0BD606A40F4002060624C
:101A90000120B0BD00206062B0BD000070470000B2
:101AA000704700007047000070470000704700005A
:101AB000704700007047000070B5866D044600F066
:101AC000D7FA94F83510022925D105462068216CF3
:101AD000026822F016020260426922F0800242612E
:101AE00009B9A16C19B1016821F008010160016810
:101AF00021F00101016000BF20680068C0070ED01E
:101B000000F0B6FA401B0628F6D3202060650320BB
:101B100084F835000CE080206065012008E0E06D6D
:101B20003F2101FA00F0B060012084F83500002068
:101B3000002184F8341070BD90F83510022909D1C5
:101B4000052180F835100068016821F0010101606D
:101B5000002070478021416501207047F0B581B0B9
:101B60000021009140F25401C2F200010B68D0E95B
:101B7000166148F2B51537680822C1F64E358A401D
:101B80003A42A3FB05350CD003681C68640708D5EE
:101B90001C6824F004041C60B260426D42F0010233
:101BA000426501228A403A4208D003685B691B06FD
:101BB00004D5B260426D42F00202426504228A40BE
:101BC0003A4208D003681B689B0704D5B260426D97
:101BD00042F00402426510228A403A4216D001685F
:101BE0000B681B0712D5B2600B680A685B0306D44A
:101BF000D20506D40A6822F008020A6001E0110347
:101C00003FD4016C11B1044688472046C26D2021A3
:101C100001FA02F33B4241D001680F68FF063DD54F
:101C2000B36090F835700B68052F1AD123F01603B6
:101C30000B604B6923F080034B61036C0BB9836C21
:101C40001BB10B6823F008030B603F219140B1608A
:101C5000012180F83510016D002280F83420D9BBB5
:101C60003EE00A685B0310D4D20512D40A6822F061
:101C700010020A60012180F83510002180F834102C
:101C800007E0816C0029BED1C0E7110301D4416C8B
:101C900000E0C16B11B1044688472046416DF9B19F
:101CA000416DC90716D0052180F835100168AA0AD0
:101CB0000B6823F001030B60009B013393420093F8
:101CC00002D80B68DB07F7D1012180F8351000211D
:101CD00080F83410C16C19B101B0BDE8F04008477C
:101CE00001B0F0BD2DE9F041044600F0C1F9C4B1E6
:101CF0000546022084F835000020216884F834006D
:101D0000086820F00100086020680168C9070BD04E
:101D100000F0AEF9401B0528F6D90321202203204C
:101D20007AE00120BDE8F081016848F23F02CFF27D
:101D30001002D4E9013501EA020ED4E9032143EA95
:101D40000E032B43D4E9056C1A43D4E907781143F9
:101D5000314341EA0702616A42EA0802042942EA81
:101D60000C0303D1D4E90B273A43134303604269C0
:101D7000042922F0070241EA02012DD1D4E90A53D5
:101D800041EA050143B3BCF5005F08D0BCF1000F88
:101D900012D1022D16D0012D07D09DB119E0032DCF
:101DA00017D8DFE805F00B0F0B02A3F1C072B2FAEF
:101DB00082F252094AB90FE0032D02D2012222B960
:101DC0000AE006D1C3F3006232B1012140220120B2
:101DD00022E00022002AF8D100F0F8024AF6AB23F4
:101DE000103ACAF6AA23A2FB033748F24403416122
:101DF0003909C0F60003595C40F2FF3398435F2A6B
:101E00004FF03F0288BF0430C4E9160102FA01F125
:101E10008160002201210020626584F83510BDE850
:101E2000F081000090F834C0BCF1010F04BF022023
:101E3000704770B54FF0010C80F834C0D0F858E00E
:101E400090F835C0BCF1010F37D14FF0020C80F88B
:101E500035C04FF0000CC0F854C0D0F800C0846802
:101E6000056CC06DDCF80060402C26F48026CCF8B0
:101E70000060CCF804300B4604BF13460A463F21ED
:101E800001FA00F0CCF80830CCF80C20CEF80800AD
:101E9000DCF8000040F01600CCF800002DB1DCF8B2
:101EA000000040F00800CCF80000DCF8000040F032
:101EB0000100CCF80000002070BD002180F8341033
:101EC000022070BD2DE9F04F83B000F1200200F137
:101ED0003E4741F60045009207F1FF77C4F2020544
:101EE00008224FEAB726A84208BF0722072E38BFAC
:101EF0004FEAB72200274FF0000A4FF00008019286
:101F00000AE000BF08F101080AF1020AB8F1100F57
:101F100007F1040700F09D800D68012202FA08FC19
:101F200015EA0C09EED04D68032205F0030BABF166
:101F30000106012E02FA0AFE10D88668CC6826EA4D
:101F40000E0604FA0AF4344384604468C5F30015AD
:101F500024EA0C0605FA08F52E434660BBF1030F90
:101F60001BD0C6688D6826EA0E0605FA0AF52E43D0
:101F7000BBF1020FC66010D16FF00302009D02EAB0
:101F8000580655F806C007F01C040F220B69A24042
:101F90002CEA0202A3401A43AA5102684B6822EAC3
:101FA0000E0203F0030606FA0AF6324313F4403F2A
:101FB0000260A7D0002243F644030292C4F2020357
:101FC0001A6843F6004442F480421A601A68C4F268
:101FD000010402F480420292029A28F003024FF6B2
:101FE000084C2244CFF6FF7C52F80C3007F00C0668
:101FF0000F25B540AB43019D05FA06F6334342F881
:102000000C30A2684B6842EA090643F60C4CDD022C
:1020100058BF22EA0906A660C4F2010CDCF80020D1
:102020009D0242EA090658BF22EA0906CCF8006080
:1020300062689D0342EA090658BF22EA0906666003
:102040002268DB0342EA090658BF22EA0906266035
:1020500058E703B0BDE8F08F0069084018BF0120C1
:1020600070470000002A08BF090481617047000022
:1020700045F23830C2F200000068704740F2841028
:1020800045F23831C2F20000C2F2000100780A685D
:10209000104408607047000080B543F60040C4F269
:1020A0000200016841F400710160016841F480613F
:1020B0000160016841F480710160032000F0BEF806
:1020C0000F2000F005F800F059F8002080BD000056
:1020D000B0B586B0002543F644010195C4F2020173
:1020E0000A68044642F001020A60096801A801F08A
:1020F000010101910199694600F060F900F092F93F
:102100004DF683614000C4F21B31A0FB01014FF08A
:10211000FF3000EB914140F674300022C2F2000023
:10212000C4F2010240F2E733C0E90021C0E90253E2
:102130000561856100F072FB08B106B0B0BD40F6E4
:102140007430C2F2000000F099FB0028F5D105467A
:10215000192000F035F80F2C0CD819202146002248
:1021600000F040F840F28810C2F2000004602846F7
:1021700006B0B0BD012006B0B0BD000082B00020A6
:1021800043F640010190C4F202014A6842F48042E1
:102190004A604A6802F480420192019A00900868FD
:1021A000002240F08050086008680F2100F0805045
:1021B000009000986FF0010002B000F013B800002A
:1021C000002848BF704700F01F01012202FA01F108
:1021D0001C2202EAD0004EF20012CEF20002815020
:1021E0007047000010B54EF60C5CCEF2000CDCF827
:1021F0000030C3F3022E8EF00704042C28BF042401
:10220000BEF103034FF0FF3E0EFA04F438BF002383
:10221000A14399400EFA03F39A43114300F160423F
:1022200000F00F03090102F56442043B63440028F7
:1022300048BF03F10C02117010BD00004EF60C51A6
:10224000CEF200010A684FF6FF031A4060F30A223B
:1022500042F0806040F0FD7008607047002804BFC5
:10226000012070472DE9F04143F60808C4F2020846
:102270000446D8F8F8030D4600F00700814207D95C
:1022800088F8F853D8F8F80300F00700A84276D190
:102290002068810717D5410705D5D8F8001041F40B
:1022A000E051C8F80010010705D5D8F8001041F436
:1022B0006041C8F80010D8F80010A26821F0F001C1
:1022C0001143C8F80010C0073FD1D8F8F80300F058
:1022D0000700854207D288F8F853D8F8F80300F0D1
:1022E0000700A8424BD12068410707D5D8F8001055
:1022F000E26821F4E0511143C8F80010000708D546
:10230000D8F80000216920F4604040EAC100C8F814
:10231000000000F09BF8D8F8001048F20A02C1F360
:102320000311C0F60002515C40F2540220FA01F1A0
:1023300040F28810C2F200000068C2F20002116090
:10234000FFF7C6FE0020BDE8F0816068811E02290B
:1023500007D258F8081C89015CBF0120BDE8F08154
:1023600010E0012807D158F8081C89035CBF012040
:10237000BDE8F08106E058F8081C890702D4012066
:10238000BDE8F081D8F8001021F003010843C8F837
:102390000000FFF76DFE064641F28837D8F80000CE
:1023A000616800F00C00B0EB810F8ED0FFF760FE8B
:1023B000801BB842F2D90320BDE8F0810F220260F1
:1023C00043F60802C4F20202136803F003034360F9
:1023D000136803F0F0038360136803F4E053C360F1
:1023E000D2F800C04FF4E05303EADC030361D2F8F3
:1023F000F80300F0070008607047000040F2540046
:1024000043F60801C2F20000C4F202010068096844
:1024100048F21A02C1F38221C0F60002515CC840A2
:102420007047000040F2540043F60801C2F2000079
:10243000C4F202010068096848F21A02C1F342318D
:10244000C0F60002515CC8407047000010B543F66A
:102450000404C4F202046168C1F3810142F2004045
:10246000C0F2F400DFE801F00203080210BD47F6F5
:102470004000C0F27D1010BD206821682368490229
:1024800047F64001C0F27D1100F03F02C3F388100F
:102490005CBF42F20041C0F2F401A1FB0001002345
:1024A000FDF762FF21680222C1F3014102EB410105
:1024B000B0FBF1F010BD0000002804BF0120704700
:1024C0002DE9F04182B00446007843F60006C007CB
:1024D000C4F2020649D0B06800F00C00042809D10B
:1024E0003068800341D5606800283ED1012002B0E9
:1024F000BDE8F081B06800F00C00082802D17068D7
:102500004002EDD465683068B5F5A02F05D0B5F56B
:10251000803F09D140F480300CE040F480203060EE
:10252000306840F4803005E020F48030306030685E
:1025300020F480203060FFF79BFD002D054611D070
:102540003068800311D4FFF793FD401B6428F7D94E
:1025500028E100BFFFF78CFD401B64284FF003000B
:1025600000F2E08030688003F4D4207880071BD527
:10257000B06810F00C0F09D0B06800F00C0008280B
:1025800040F085807068400200F1818030688007EB
:1025900003D5E068012840F09A803068216920F076
:1025A000F80040EAC10030602078000734D4207879
:1025B000400746D4A5695DB3B06800F00C00082858
:1025C00040F09C80012D00F082807068E16900F489
:1025D00080028A427BD1216A00F03F028A4276D192
:1025E00047F6C071626A0140B1EB821F6FD1A16AE8
:1025F0004FF6FF73C903994300F44032A1F58031CF
:102600008A4264D1E16A00F07060B0EB016F5ED184
:10261000002002B0BDE8F081606900285BD0002096
:10262000C4F247200121C0F8801EFFF721FD0546B6
:10263000706F8007BBD4FFF71BFD401B0228F7D942
:10264000B0E0306C5FEAC0080AD400200190306C22
:1026500040F080503064306C00F080500190019860
:1026600047F20007C4F200073868C00526D438686E
:1026700040F480703860FFF7FBFC05463868C00501
:102680001CD4FFF7F5FC401B0228F7D98AE0E0686C
:10269000002840F20000C4F2472053D0012101601D
:1026A000FFF7E6FC054600BF306880073FF575AFD1
:1026B000FFF7DEFC401B0228F6D973E0A568306FF7
:1026C000052D51D0012D56D140F0010059E00120D7
:1026D00002B0BDE8F0810020C4F247200021C0F81C
:1026E000801EFFF7C5FC0546706F80077FF55FAF62
:1026F000FFF7BEFC401B0228F6D953E00027C4F2C6
:10270000472700203866FFF7B3FC022D05460DD1A0
:10271000306880015DD5FFF7ABFC401B02284FF00D
:102720000300F5D902B0BDE8F08100BF3068800138
:102730007FF56EAFFFF79CFC401B02284FF00300B3
:10274000F4D9EFE700210160FFF792FC054600BFD6
:10275000306880077FF528AFFFF78AFC401B02280E
:102760004FF00300F4D9DDE740F004003067306F2C
:1027700040F0010005E020F001003067306F20F0EC
:1027800004003067FFF774FC002D054641F28837DE
:1027900013D000BF306F800712D4FFF769FC401BD5
:1027A000B842F7D9032002B0BDE8F081FFF760FC22
:1027B000401BB8424FF00300B4D8306F8007F5D407
:1027C000B8F1000F3FF5F6AE306C20F08050306469
:1027D000F0E604F11C052FCD084340EA8210D9032E
:1027E0004FF6FF729143A1F5803140EA056008433E
:1027F000706001203866FFF73BFC044630688001BA
:102800003FF506AFFFF734FC001B02284FF0030032
:10281000F4D987E77047000070470000002804BF24
:102820000120704710B5044690F83D0028B90020FB
:1028300084F83C00204600F01FF8022084F83D0098
:102840002068211D02F0A2F9012084F8460084F8D6
:102850003E0084F83F0084F8400084F8410084F88A
:10286000420084F8430084F8440084F8450084F86A
:102870003D00002010BD00007047000090F83D10A2
:1028800001291CBF01207047022180F83D1000681B
:1028900041F2FF72C168C4F20002904241F00101AE
:1028A000C1600DDC40F2FF71C4F20001884215DC0A
:1028B000B0F1804F29D040F20041C4F2000122E083
:1028C00040F2FF31C4F20101884212DC41F60001FE
:1028D000C4F20001884218D0002112E040F6000145
:1028E000C4F20001884210D040F60041C4F2000159
:1028F00009E044F20001C4F20101884205D040F22F
:102900000041C4F20101884206D1816801F007014B
:10291000062904BF00207047016841F001010160F1
:10292000002070477047000070B504460068C56815
:102930000669B10716D515F0020113D06FF0020138
:102940000161012121778069800703D02046FFF7CC
:10295000E9FF05E0204600F08DF8204600F08CF8F5
:1029600000202077700718D515F0040015D02068D6
:102970006FF00401016102212177806910F4407F2A
:1029800003D02046FFF7CEFF05E0204600F072F8A6
:10299000204600F071F800202077300717D515F099
:1029A000080014D020686FF008010161042121772C
:1029B000C069800703D02046FFF7B4FF05E020463A
:1029C00000F058F8204600F057F800202077F00675
:1029D00018D515F0100015D020686FF010010161B6
:1029E00008212177C06910F4407F03D02046FFF70B
:1029F00099FF05E0204600F03DF8204600F03CF845
:102A000000202077F00718BF15F0010002D1300632
:102A100009D412E020686FF001010161204600F046
:102A20002DF8300609D515F0800006D020686FF02B
:102A3000800101612046FFF7EDFE700609D515F013
:102A4000400006D020686FF040010161204600F090
:102A50001FF8B00658BF70BD15F0200008D02168DF
:102A60006FF0200220460A61BDE87040FFF7D4BE37
:102A700070BD000070470000704700000068002132
:102A8000C4F20101884218BF7047FFF7F7BA00008F
:102A90007047000090F84230202B07D100294FF0FA
:102AA000010318BF002A04D11846704702231846B4
:102AB0007047B0B582B00123002503634563044627
:102AC00002F01EFB216B0123012912D1019521681F
:102AD0000A68019249680191019900BF216851E893
:102AE000031F226841F0100142E80313002BF5D1C7
:102AF000034602B0BDE8B040184670472DE9F041EA
:102B00000546006845F20007C4F20007B8420C46CB
:102B10001FD140F69446C2F20006304600F034F869
:102B200040F26070C2F2000045F218380068C2F24C
:102B30000008314642462346FEF7DEF9304641465C
:102B40001E22FFF7A7FFF06B0068016821F0080163
:102B50000160286807F54441884218BFBDE8F0814C
:102B600041F2084040F6DC41C2F20000C2F200012E
:102B7000224601F0B7F840F23070C2F200000021A6
:102B80000160BDE8F081000010B5044600684069AE
:102B900094F84110212920D110F080001DD000BFF1
:102BA000206850E8050F216820F0800041E8050208
:102BB000002AF5D1A06B002818BFFEF77DFF00BFEB
:102BC000206850E8030F216820F0C00041E80302AC
:102BD000002AF5D1202084F841002068406994F84B
:102BE0004210222939D110F0400036D0206850E838
:102BF000050F216820F0400041E80502002AF5D1C8
:102C0000E06B002818BFFEF757FF00BF206850E8B0
:102C1000030F216820F4907041E80302002AF5D1E7
:102C2000206850E8050F216820F0010041E8050206
:102C3000002AF5D1206B01280AD100BF206850E896
:102C4000030F216820F0100041E80302002AF5D1AB
:102C5000202084F8420000202063002010BD0000E6
:102C6000F0B583B00446006845F20007C4F20007DF
:102C7000B84233D12046FFF787FF00206064202050
:102C800084F8420084F841002068016811F00E0FBA
:102C900007D00268C9070292426801921CBF00680F
:102CA000009040F26070C2F2000040F6944545F298
:102CB00018360068C2F20005C2F200062946324604
:102CC0000023FEF719F9284631461E22FFF7E2FEDF
:102CD000E86B0068016821F008010160206807F5D1
:102CE000444188421CBF03B0F0BD04F0F5FB40F244
:102CF0003876C2F20006D6E905120546401A0A28BF
:102D00004FF0000038BF501CC6E9055040F6DC40CB
:102D1000C2F200000027FFF737FF2020676484F825
:102D2000420084F841002068016811F00E0F0CD0B9
:102D300002680B0702924268019228D44A072BD4FA
:102D40008A0702D5B2680132B260C90704D00068B0
:102D50000290306901303061306840F234710130E6
:102D6000C2F2000140F6485330600860C2F200032E
:102D700041F2084040F6DC41C2F20000C2F200011C
:102D800000221D6003B0BDE8F04000F0ABBF7268E8
:102D9000013272604A07D3D5F2680132F2608A07C5
:102DA000D0D4D2E790F8411090F842000843C0B266
:102DB00070470000B0B582B001680A68CC684B6902
:102DC00002F02F05202D04F0200505D125B102B019
:102DD000BDE8B04002F0C4B85FEA027C1EBF03F059
:102DE000010E04F4907313EB0E0340D1036BD50670
:102DF00018D5012B16D114F0100313D00022019224
:102E00000A6801924A680192019A4969490647D4C1
:102E1000818DC28DC38D002B18BF914240F01A8165
:102E200002B0B0BD13062AD514F0800327D090F865
:102E30004120212AF4D18268B2F5805F03D1026972
:102E4000002A00F03A81026A531C036212784A6039
:102E5000C28C013A1304C284E2D1C86820F0800019
:102E6000C860C86840F04000C86002B0B0BDD1077B
:102E700018BF14F4807167D151076BD471E052060A
:102E8000CED514F04002CBD0CA6822F04002CA600E
:102E9000202180F8411002B0BDE8B04000F0F0BB46
:102EA000C26B116849688BB2002B42D0858DAB4252
:102EB0003FD2C185D169B1F5807F33D0016851E837
:102EC000031F026821F4807142E80313002BF5D13F
:102ED000016851E8051F026821F0010142E805136D
:102EE000002BF5D1016851E8051F026821F040016F
:102EF00042E80513002BF5D1202180F84210002173
:102F0000016300BF016851E8031F026821F010014E
:102F100042E80313002BF5D1C16B04460846FEF7C7
:102F2000CBFD204602214163818DC28D891A89B271
:102F3000B9E0818D99427FF473AFD269B2F5807F99
:102F40007FF46EAF0222ADE0416C41F001014164BB
:102F5000510706D5BEF1000F03D0416C41F00201CC
:102F60004164910706D5BEF1000F03D0416C41F0DA
:102F700004014164BCF1000F06D55EEA050103D0EF
:102F8000416C41F008014164416C00293FF448AFB5
:102F9000910604D51DB1044601F0E2FF2046016808
:102FA0004969426C01F0400102F0080289184AD0D8
:102FB000016851E8031F026821F4907142E803138D
:102FC000002BF5D1016851E8051F026821F00101CD
:102FD00042E80513002BF5D1016B01290AD100BF8E
:102FE000016851E8031F026821F0100142E8031351
:102FF000002BF5D1202180F84210002101630168E7
:103000004969490654D500BF016851E8051F0268A7
:1030100021F0400142E80513002BF5D1C16B0029D6
:1030200046D044F6D152C0F60002044608460A656E
:10303000FEF782FD00283FF4F3AEE06B016D02B0B5
:10304000BDE8B04008470446FFF70AFE0020606470
:1030500002B0B0BD891A00BF026852E8032F0368AE
:1030600022F4907243E80325002DF5D1026852E85E
:10307000052F036822F0010243E80525002DF5D154
:10308000202280F842200022026300BF026852E83A
:10309000032F036822F0100243E80325002DF5D129
:1030A000022289B2426302B0BDE8B040FFF726BDFC
:1030B00002B0BDE8B040FFF7D3BD026A32F8023B70
:1030C0006FF35F234B600262C2E60000002804BF7A
:1030D0000120704710B5044690F8410028B900203F
:1030E00084F84000204600F021F8242084F84100B4
:1030F0002068C16821F40051C160204601F090FFB2
:103100002068016921F490410161416921F02A019F
:103110004161C16841F40051C16000202021606418
:1031200084F8411084F84210606310BD2DE9F04F1F
:1031300087B00446006844F6FF31C4F200018842BB
:103140004FF000010691CDE90411CDE902117ADDBD
:1031500041F20041C4F20101884200F0EA8045F2E8
:103160000001C4F20001884200F0478144F60041AA
:10317000C4F20001884240F03282002643F630005B
:103180000196C4F20200016946F2100841F40021E0
:1031900001610169C4F2020801F400210191019961
:1031A0000196016841F004010160006802A900F085
:1031B0000400019001984FF4406002900220CDE994
:1031C0000306032005900820069040F60000C4F294
:1031D0000200FEF777FE40F2B47508F13000C2F24B
:1031E00000054FF000674FF48069C5E900072846E5
:1031F000C5E90266C5E90496C5E90666C5E908663B
:10320000FEF770FD002818BFFEF732F8E563AC63E7
:1032100040F6140508F16000C2F200054021C5E93E
:10322000000705F1080080E842022846C5E9056666
:10323000C5E907666E62FEF755FD00284FF03406BB
:1032400040F05981C1E144F20041C4F200018842DA
:1032500000F0548144F60001C4F20001884240F0BD
:10326000BE81002643F630000196C4F202000169D7
:1032700046F2100841F4802101610169C4F202089C
:1032800001F48021019101990196016841F0020148
:103290000160006802A900F00200019001984FF45B
:1032A000406002900220CDE903060320059007202C
:1032B000069040F60000C4F20200A0F58060FEF720
:1032C00001FE40F6F41508F11800C2F200054FF0B7
:1032D00000674FF48069C5E900072846C5E9026622
:1032E000C5E90496C5E90666C5E90866FEF7FAFC75
:1032F000002818BFFDF7BCFFE563AC6340F654251A
:1033000008F14800C2F200054021C5E9000705F1B7
:10331000080080E842022846C5E90566C5E9076657
:103320006E62FEF7DFFC00284FF0270640F0E380D6
:103330004BE1002643F630000196C4F202004169D9
:1033400046F2100841F0200141614169C4F20208CF
:1033500001F02001019101990196016841F00401F9
:103360000160006802A900F0040001900198C020EB
:1033700002900220CDE90306032005900820069064
:1033800040F60000C4F20200FEF79CFD40F6B425B2
:1033900008F58360C2F200054FF020674FF48069A2
:1033A000C5E900072846C5E90266C5E90496C5E9EE
:1033B0000666C5E90866FEF795FC002818BFFDF70C
:1033C00057FFE563AC6340F6143508F59260C2F22E
:1033D00000054021C5E9000705F1080080E8420228
:1033E0002846C5E90566C5E907666E62FEF77AFC00
:1033F00000284FF047067ED1E7E0002743F6300073
:103400000197C4F20200016940F6000541F4801101
:1034100001610169C4F2020501F480110191019971
:103420000197016802AE41F004010160016846F2B3
:10343000100801F0040101910199019701684FF012
:10344000020941F00801016000684FF0030A00F032
:103450000800019001984FF4805002904FF0080B43
:1034600028463146C4F20208CDE90397CDF814A0EE
:10347000CDF818B0FEF726FD0420CDE9020904A816
:1034800080E8800C05F580603146FEF71BFD40F6B4
:103490007405C2F200054FF000664FF480692846BB
:1034A000C5E90086C5E90277C5E90497C5E906774D
:1034B000C5E90877FEF716FC002818BFFDF7D8FE0F
:1034C000E563AC6340F6D40508F1A800C2F200053C
:1034D0004021C5E9000605F1080080E8820228467F
:1034E000C5E90577C5E907776F62FEF7FBFB0028A2
:1034F0004FF0350669D0FDF7BBFE66E0002643F6C7
:1035000030000196C4F20200016946F2100841F44D
:10351000003101610169C4F2020801F40031019136
:1035200001990196016841F008010160006802A953
:1035300000F0080001900198602002900220CDE97F
:103540000306032005900720069040F60000C4F211
:10355000020000F58060FEF7B5FC40F6341508F176
:103560007800C2F200054FF000674FF48069C5E9AA
:1035700000072846C5E90266C5E90496C5E906665E
:10358000C5E90866FEF7AEFB002818BFFDF770FE20
:10359000E563AC6340F6941508F19000C2F20005B3
:1035A0004021C5E9000705F1080080E842022846ED
:1035B000C5E90566C5E907666E62FEF793FB00285C
:1035C0004FF0260618BFFDF753FE304605210022B6
:1035D000A563AC63FEF706FE3046FEF7F1FD07B0CB
:1035E000BDE8F08F7047000070470000B0B590F85C
:1035F0004140202C1CBF0220B0BD134600294FF0D3
:10360000010218BF002B01D11046B0BD4FF0000CD5
:10361000212401628384C384C0F844C080F84140FF
:1036200002680446806B44F6197E44F65975C0F66C
:10363000000EC0F60005C0E90FE544F6DD55C0F602
:1036400000050432C0E9135CFEF7ECFB30B110203A
:103650006064202084F841000120B0BD20686FF034
:1036600040010160206850E8050F216840F08000AB
:1036700041E80502002AF5D100221046B0BD000045
:10368000006841F20041C4F20101884218BF70474E
:1036900041F2084040F6DC41C2F20000C2F20001F3
:1036A00000F040BB70470000FEE700008A68C0E9F8
:1036B000001270474068002818BF043070470000AF
:1036C000416800291CBF096841607047F0B581B0AE
:1036D0000446D0E900600F4601306060301DFCF701
:1036E000EDFD0021054640F8041B39463246FCF743
:1036F000B3FE54F8080F18B1044600680028FBD147
:103700000020256001B0F0BD10B504460C20FCF788
:10371000D5FD0021C0E90041816010BD80B540F2B7
:10372000647046F20041C2F20000C4F200010322BC
:10373000002380E80E0000F10C014FF4A02C4FF4A0
:10374000C00E81E8085083618383FEF715F80028D6
:1037500008BF80BDBDE88040FDF78ABD80B540F25E
:103760008C7046F60001C2F20000C4F20001032290
:10377000002380E80E0000F10C014FF4A02C4FF460
:10378000C00E81E8085083618383FDF7F5FF0028B0
:1037900008BF80BDBDE88040FDF76ABD80B582B03E
:1037A000002043F630010190C4F202010A6842F49D
:1037B00000120A600A6802F400120192019A009055
:1037C0000868002240F4800008600868052100F4C1
:1037D0008000009000980B20FEF704FD0B20FEF700
:1037E000EFFC0C2005210022FEF7FCFC0C20FEF76C
:1037F000E7FC0D2005210022FEF7F4FC0D20FEF76A
:10380000DFFC0E2005210022FEF7ECFC0E20FEF767
:10381000D7FC0F2005210022FEF7E4FC0F20FEF765
:10382000CFFC102005210022FEF7DCFC1020FEF763
:10383000C7FC112005210022FEF7D4FC1120FEF761
:10384000BFFC2F2005210022FEF7CCFC2F20FEF725
:10385000B7FC392005210022FEF7C4FC3920FEF711
:10386000AFFC452005210022FEF7BCFC452002B03C
:10387000BDE88040FEF7A4BC80B5012000210322F2
:1038800003F010F941F2F431C2F20001086044F68D
:10389000912048F24C02C0F60000C0F60002002160
:1038A00001F014FE40F22C71C2F20001086080BDEC
:1038B000F0B587B0002643F630000696CDE90466E1
:1038C000CDE902660196C4F202000168002441F0CD
:1038D000800101600168C4F2020401F080010191DD
:1038E000019901960168002241F00401016001681C
:1038F000102701F00401019101990196016841F03E
:1039000001010160016801F0010101910199019635
:10391000016841F002010160016801F002010191BA
:1039200001990196016841F00801016000681021C9
:1039300000F00800019001982046FEF793FB0C2050
:1039400002ADCDE9020604F5006029460496FEF7B3
:10395000B9FA0120CDE903062046294602970596CB
:10396000FEF7B0FA4FF44050CDE9020604F580604E
:1039700029460496FEF7A6FA07B0F0BD80B540F6DA
:103980004C4044F60041C2F20000C4F200010023A2
:103990004FF00C0C4FF4E13280E80E00C0E9033325
:1039A000C0E905C3C361FFF791FB002808BF80BDD4
:1039B000BDE88040FDF75CBC80B540F6944045F220
:1039C0000001C2F20000C4F2000100234FF00C0C11
:1039D0004FF4E13280E80E00C0E90333C0E905C3CB
:1039E000C361FFF773FB002808BF80BDBDE88040BE
:1039F000FDF73EBC80B540F6BC3044F20041C2F257
:103A00000000C4F2000100234FF00C0C4FF4E1322F
:103A100080E80E00C0E90333C0E905C3C361FFF7C6
:103A200055FB002808BF80BDBDE88040FDF720BCE5
:103A300080B540F6044044F60001C2F20000C4F232
:103A4000000100234FF00C0C4FF4E13280E80E002F
:103A5000C0E90333C0E905C3C361FFF737FB0028A2
:103A600008BF80BDBDE88040FDF702BC80B540F6D0
:103A7000DC4041F20041C2F20000C4F2010140F614
:103A8000001200234FF00C0CC0F23D0280E80E0043
:103A9000C0E90333C0E905C3C361FFF717FB002882
:103AA00008BF80BDBDE88040FDF7E2BBFEE7000037
:103AB00010B582B041F2C824C2F200040A460146A1
:103AC0002046FCF7C9FCF4E8020C41F2E0311CCCC2
:103AD000C2F20001C1E9000C01F108001CC041F272
:103AE000F830C2F200009FED190A9FED191A043850
:103AF0000439042290ED012A91ED013A22EE002AC8
:103B000023EE013A33EE022A81ED012A043180EDE1
:103B1000012A0430013AEDD141F2F430C2F2000042
:103B200000210068019101A903F076F9019850B1D4
:103B30004EF60450CEF200004FF080510160BFF30A
:103B40004F8FBFF36F8F02B010BD00BFCCCCCC3E07
:103B50009A99193FFEE7000090ED063A90ED032A8E
:103B600030EEC00A90ED041A30EE033AB4EE423A59
:103B700080ED040A80ED051AF1EE10FA80ED063AA8
:103B8000C8BF80ED062A90ED063AB1EE422AB4EEA7
:103B9000423AF1EE10FAB8BF80ED062A90ED002A05
:103BA00090ED013A90ED064A90ED025A22EE002A7D
:103BB00030EE410A23EE043A25EE001A90ED080A91
:103BC00032EE032A31EE022AB1EE401AB4EE412A57
:103BD000F1EE10FA80ED072AB8BF80ED071A90EDDC
:103BE000071AB4EE401AF1EE10FAC8BF80ED070ACA
:103BF000704700000000000000000000000000000E
:103C0000EFF30980BFF36F8F154B1A681EF0100F8A
:103C100008BF20ED108A20E9F04F10602DE909005F
:103C20004FF0500080F31188BFF34F8FBFF36F8FB9
:103C300002F006FE4FF0000080F31188BDE8090095
:103C400019680868B0E8F04F1EF0100F08BFB0EC1C
:103C5000108A80F30988BFF36F8F704700BF00BFE1
:103C6000500E0020F0B581B0044600284FF001004E
:103C700019D00E46B9B11546AAB10021032200277A
:103C800002F010FF6061301DC4E90057454328462B
:103C9000A660FCF713FBE06038B129460646FCF746
:103CA00028FC0020266101B0F0BD022001B0F0BD6B
:103CB00070B5154606460EC00120002103221C46A1
:103CC00002F0F0FE306101200021032202F0EAFE42
:103CD0000346A1B228460022F360BDE87040FEF71B
:103CE000C1B90000036809681B688B421CBF002033
:103CF000704780B582B00369426101A9184603F09C
:103D00008BF8019850B14EF60450CEF200004FF0FF
:103D100080510160BFF34F8FBFF36F8F012002B05E
:103D200080BD00000268096812688A421CBF00203A
:103D3000704710B582B042680189044610460022DF
:103D4000FEF790F9E06801A903F066F8019850B118
:103D50004EF60450CEF200004FF080510160BFF3E8
:103D60004F8FBFF36F8F012002B010BD86B040F6B9
:103D70004051C2F200010968044604A8FFF796FC0E
:103D800041F2DC26C2F2000640F26078B01C41F23B
:103D9000204BC2F200080DF10F0900900027F01D22
:103DA0000DF1080AC2F2000B019003E014B10320E8
:103DB000A04700BFD8F80000494601224FF47A73AB
:103DC000FCF7CCFF0130F5D09DF80F205A2A35D0F2
:103DD000AA2A5DD1D8F80000514604221423029784
:103DE000FCF7BCFF042859D141F2A050C2F20000F8
:103DF00000684FF0FF3103F03FF90298002103E023
:103E00003031B1F5C07F0DD00BEB01052A7C002AC3
:103E1000F6D06A698242F3D1AA6912B1E869012138
:103E200090472F7441F2A050C2F2000000680021B8
:103E30000022002302F0E6FEBCE700BF3146D8F8BE
:103E4000000001F8012B01221423FCF787FF012851
:103E5000ACD17578072DA9D9E91ED8F800008FB22A
:103E600000993A4632234FF0000AFCF777FFB84238
:103E70001AD1681E24D041F2DC21C2F2000180B2C6
:103E80000139002711F8012F01381744FAD118E041
:103E9000002C3FF48FAF0120A0478BE7002C3FF4AC
:103EA00089AF0420A04785E741F2DC26002C4FF0C3
:103EB00000070DF1080AC2F200067FF478AF79E737
:103EC0000027D8F800000DF10E01012214238DF80F
:103ED0000EA0FCF743FF012857D19DF80E00F9B260
:103EE00041F2DC268842C2F2000657D196F902A0C0
:103EF000BAF1FF3F1FDCAA208DF8080041F2DC2058
:103F0000C2F2000041F20C77D0F80310C2F20007B1
:103F10003868CDF809104FF0FF3103F0ADF8D8F84C
:103F2000000002A90522FDF76FF838680021002281
:103F3000002302F067FE41F2DC30C2F200000068AC
:103F40004FF0FF3103F098F804AF384600F078FAEC
:103F50003846FFF7AFFB40B35FFA8AF101F00F0A72
:103F6000A5F108018FB207E004AD2846FFF7A8FBD2
:103F70002846FFF79FFBC0B1017B5145F4D1D0E942
:103F80000032019839469847EEE741F2DC260DF100
:103F9000080AC2F20006C4B1032003E00DF1080ACA
:103FA0009CB10220A047002704E741F2DC30C2F2B6
:103FB0000000006800210022002302F023FE41F2ED
:103FC000DC260DF1080AC2F200060027F2E6000026
:103FD00082B003F081FA019040F69440C2F20000F2
:103FE000FCF766FE40F26071C2F20001086000203A
:103FF00000F02AF940F27C10C2F20000006841F2A1
:10400000E032C2F20002012101F002FF40F25C0046
:1040100040F2BC0140F21C1240F2000A9FED829A6D
:104020009FED82BA9FED82CA9FED82DA9FED82EA10
:104030009FED82FAC2F20000DFED819AC2F2000128
:10404000C2F200029FED7F8A40F25C0940F2BC0898
:10405000C2F2000AB6EE00AAF1EE0C8A00F12404C6
:1040600001F1240502F1240001AEC2F20009C2F2FE
:104070000008009004E000BF3046022102F07AF907
:104080009AF80000022840F0AA8000F057F940F2A8
:10409000003040F2FC21C2F20000C2F2000140F206
:1040A000043290ED000A91ED001AC2F2000292ED86
:1040B000002A21EE091A20EE0A0A31EE400A22EE09
:1040C0000B1A45F2503331EE000AC2F2000383EDC1
:1040D000000A90ED000A91ED001A92ED002A21EEFF
:1040E0000C1A20EE0A0A31EE400A22EE0B1A45F2B3
:1040F000543131EE000AC2F2000181ED000A90ED68
:10410000000A92ED001A45F2583021EE0B1A31EEFA
:10411000000AC2F2000080ED000A93ED000A45F6A5
:10412000142280EE0D0AC2F2000245F61C27C2F2EC
:10413000000720EE0E0A82ED000A91ED000A80EEE3
:104140000D0A20EE0F0A87ED000A90ED000A45F6F1
:10415000182080EE0D0AC2F2000020EE0E0A80ED5B
:10416000000A99ED0B0AD2ED000AB8EEC00A80EE03
:10417000280A484680EE290AFFF7EEFC98ED0B0A64
:10418000D7ED000AB8EEC00A80EE280A404680EE5D
:10419000290AFFF7E1FC40F21C17C2F2000797ED75
:1041A0000B0A45F61820B8EEC00A80EE280AC2F2C3
:1041B0000000D0ED000A384680EE290AFFF7CCFC5B
:1041C00099ED070A204601F0F3F898ED070A284612
:1041D00001F0EEF897ED070A009801F0E9F89AF877
:1041E000000001283FF648AF45F614210020C2F236
:1041F0000001086045F61C21C2F20001086045F686
:104200001821C2F2000108602046B0EE480A01F011
:10421000CFF82846B0EE480A01F0CAF80098B0EE90
:10422000480A01F0C5F827E7D7B35D3FE7FBE93E51
:10423000D7B35DBF3B46F13E000070C20000704244
:104240009A9959400000000070B582B0044640F6CB
:104250002850C2F2000054210822FFF703FD40F667
:104260002450C2F20000002505601020FFF74CFA30
:1042700040F64051C2F200010860082018210022D7
:1042800002F010FC41F2A461C2F2000108600120BA
:1042900002F0D0FB41F20C71C2F200010860012073
:1042A00002F0C8FB41F2DC31C2F2000108600120DB
:1042B00002F0C0FB41F2A051C2F20001086044F6D6
:1042C000E5000526C0F6000011A14FF4807200231E
:1042D000CDE9006503F002F843F66D50C0F600002A
:1042E0000FA14FF480722346CDE9006502F0F6FF7E
:1042F00040F2E5700326C0F600000DA14FF4807275
:104300000023CDE9006502F0E9FF02B070BD00BFF7
:104310007561727453656E645461736B00000000C4
:1043200075617274526563765461736B00000000AE
:104330007561727461636B5461736B0080B541F297
:10434000F430C2F200000068C82102F095FE012896
:1043500060D140F2D020C2F20000D0E903329FEDDC
:10436000342AC0F81E2041F2E032C2F2000292ED7F
:10437000011A018B92ED000A92ED023A81EE021AC7
:104380009FED2C2A9FED2C4AC184416980EE020AE0
:1043900083EE042AC0F822101169C0F81A30C1F364
:1043A0004003C375C1F380030376C1F30013C374E4
:1043B000C1F380130375C1F3C0034375C1F3401308
:1043C0008375C1F300234376C1F38023C1F3C02278
:1043D0000374C1F340234273C1F300329FED174AC7
:1043E0004374C1F380338273C1F34032C9B2B1EE7A
:1043F000003AC90921EE031A20EE030A22EE042A2C
:104400000373C273817480ED001A80ED010A80EDA0
:10441000022A80BD40F2D020C2F2000000210183B8
:10442000C0E90011C0E90211C0E9041180BD00BF5C
:104430000020F74400C0E04400E0E644DB0F4940C0
:10444000016889684160704780B58AB00DC842EA4A
:104450000322002142F04072CDE904120422CDE98A
:1044600006210822CDE9001108928DF8241004A934
:104470006A4603ABFCF714FF0AB080BD4FF0FD0C99
:1044800080E8061003737047002804BF01207047BE
:1044900070B58AB0037B4FF0000C032BCDF804C03D
:1044A000CDF800C000F2CE8068A202EB830292ED4C
:1044B000004A6AA202EB830292ED003A48F224021B
:1044C000C0F6000202EB830292ED005A67A202EBF3
:1044D000830292ED006A48F23402C0F60002DFED7A
:1044E0006B2A02EB830292ED007A64A270EEA20ABC
:1044F000DFED684A02EB8302F5EE400AD2ED003AA6
:10450000DFED632AF1EE10FAB8BFF0EE620AF4EEC6
:10451000640A31EE461AF1EE10FA35EE465AB5EE5F
:10452000401AC8BFF0EE640AF1EE10FAB8BFB0EE60
:10453000621AB4EE451AF1EE10FAF5EE401AC8BF51
:10454000B0EE451AF1EE10FAB8BFF0EE621AF4EED2
:10455000441AF1EE10FAB5EE402ADFED4F5AC8BF0B
:10456000F0EE441AF1EE10FAB8BFB0EE622AB4EEE3
:10457000432AF1EE10FAC8BFB0EE432A22EE252AF4
:1045800030EE630A82EE032A37EE633AB5EE400A54
:10459000F1EE10FAB8BFB0EE620AB4EE430AF1EEE3
:1045A00010FAC8BFB0EE430A20EE250A60EEA50A55
:1045B00021EE251A80EE030AC0EEA40A81EE051A48
:1045C00021EEA55A85EE044A00688DF824C0BDEEA0
:1045D000C00ABDEEE03ABDEEC11A10EE105A13EE5D
:1045E000102A11EE103ABDEEC41A41EA052111EE6F
:1045F00010EABDEEC21A160A8DF801201A0A01F15E
:10460000807111EE104A8DF802204FEA1E22CDE98A
:1046100004C104218DF80420220ACDE9061C0821DA
:104620008DF803308DF80620089104A96A4603AB83
:104630008DF800608DF805E08DF80740FCF730FE3E
:104640000AB070BD02200AB070BD00BF0000FA437E
:1046500000409C4500409C4500409C450000A04017
:104660000000C8420000C8420000C842000030C23A
:10467000000030C20000A0C1000070C1000088C16D
:10468000000070C2000070C20000F0C2DB0F4941A0
:1046900000000000DB0FC94100FF7F470000000061
:1046A00070B5066809683668B14277D14168C2F3CF
:1046B00007268E4272D1110E00F09380152900F06A
:1046C0008C8011296CD0022940F08B80110C80F86D
:1046D0003810198848F2010409BACFF6FF7404EBC8
:1046E000114100EE101AB8EEC00AB1EE001A20EE29
:1046F000010A10EE101A064608461D4603F002FC99
:104700009FED490B53EC102B03F0FEFA9FED480B85
:1047100053EC102B03F084F903F050F9317B306136
:10472000032900F25E8048F22400C0F600006A8887
:1047300000EB810090ED000A10BA04EB104001EE8E
:10474000100AB8EEC11A9FED3C2A20EE010A80EE55
:10475000020A48F23400C0F6000000EB810090ED40
:10476000001A86ED050AA88800BA04EB104000EE96
:10477000100AB8EEC00A21EE000A80EE020A9FED90
:104780002F1A86ED060AE88840BA00EE100AB8EE45
:10479000400A20EE010A86ED090A22E0002070BDE1
:1047A0000146188847F20502821A1B2A4FF00100C1
:1047B00088BF70BDDFE802F00E1616161616231617
:1047C0001616161A2C16162F16161D26291635160D
:1047D000163217201879086403E0D3E90012C0E903
:1047E0000C12012070BD58680866FAE758688864A2
:1047F000F7E758684865F4E758684866F1E758688D
:104800004864EEE758688865EBE758680861E8E7B0
:104810005868C864E5E758680865E2E75868C865FD
:10482000DFE758684861DCE7182D4454FB21094054
:1048300000000000C0FFDF4000FEFF46CDCCCC3DB5
:1048400080B58AB0012200920DC842EA03220021FD
:1048500042F0C062CDE904120422CDE9062108220B
:10486000019108928DF8241004A96A4603ABFCF765
:1048700017FD0AB080BD000080B58AB0002247F263
:104880000503CDE90022ADF800308DF804100BC807
:1048900041EA032141F09051CDE904210421CDE901
:1048A0000612082108918DF8242004A96A4603AB5A
:1048B000FCF7F6FC0AB080BD00000000000000001C
:1048C000074B19680868B0E8F04F80F30988BFF318
:1048D0006F8F4FF0000080F31188704700BF00BF5A
:1048E000500E002086B041F2A45540F25804C2F2A6
:1048F000000541F20C7B41F22048C2F20004EE1D9B
:10490000A5F1010AC2F2000BC2F2000805E000BFE7
:10491000049A12B105980021904741F2A460C2F2B6
:104920000000006869464FF0FF3202F0D1FAD4F877
:104930000090BDF8007009F10100F92F2060E7D266
:104940009DF802105A20287007F10800A9700199FB
:10495000687030463A46C5F80390FBF77DFDF81DB8
:1049600080B20021524600BF12F8013F01381944BD
:10497000FAD17A19DBF80000D1714FF0FF3102F063
:104980007BFBBDF8001040F26070C2F200000068CE
:1049900008318AB22946FCF737FBDBF8000000211A
:1049A0000022002302F02EF99DF90200002806D40F
:1049B000049A002AB1D0059801219047ADE741F251
:1049C000A050C2F2000000684FF0FF3102F054FB2B
:1049D000002000BF08EB0007397C79B13030B0F51A
:1049E000C07FF7D141F2A050C2F200000068002160
:1049F0000022002302F006F9049A8BE701213974A2
:104A0000DDE90412C7E905919DF80210FA6187F803
:104A100022100199BDF8002079623A849DF80810AF
:104A2000039A87F8281048F80020FCF73FF944F66D
:104A3000D351C1F26201A0FB010141F2A050C2F2C8
:104A40000000890900680022C7E902120021002342
:104A500002F0D8F861E7000080B582B0A5208DF89B
:104A600006004FF4AD70ADF8040040F64C40C2F2C1
:104A70000000FEF797F9202807D140F64C40C2F21B
:104A8000000001A90322FEF7B1FD02B080BD0000C5
:104A900000F012F9002001F0E5FC00BF012000F059
:104AA000D3FCFBE780B54EF21000CEF200000068A8
:104AB00002F0FEFC012808BF80BDBDE8804001F087
:104AC000A1BF000070B592B006AC20463021FBF7C4
:104AD00032FD002543F640000595CDE90355CDE9AB
:104AE00001550095C4F202000168022641F0805190
:104AF0000160006800F080500090009847F20000CC
:104B00000095C4F20000016841F480410160006832
:104B100000F48040009000980120099010200A9035
:104B200008200E90A820CDE90F0604201190204601
:104B30000696CDE90C65FDF7BFFC10B172B600BF5B
:104B4000FEE70F20CDE901064FF4A05004904FF48A
:104B50008050059001A805210395FDF77FFB10B15A
:104B600072B600BFFEE712B070BD00004EF688506E
:104B7000CEF20000016841F470010160704700004E
:104B800040F67430C2F20000FDF7CEBEB0B540F67C
:104B9000FF3E0568C4F2000E40F2004C7045C4F2BE
:104BA000010C0FDCB0F1804F19D040F20043C4F289
:104BB0000003984213D040F60003C4F20003984269
:104BC0000DD011E040F60043C4F20003984206D035
:104BD000604504D00023C4F20103984204D14B681D
:104BE00025F0700243EA020541F6FF73C4F20003A8
:104BF00098420FDC704521DCB0F1804F41D040F28B
:104C00000043C4F2000398423BD040F60003C4F2D4
:104C1000000334E043F6FF73C4F2010398421EDC44
:104C200042F20003C4F2000398422AD00023C4F2E7
:104C30000103984225D0604523D027E040F6004389
:104C4000C4F2000398421CD041F60003C4F20003F2
:104C5000984216D041F60043C4F200030FE044F23C
:104C60000003C4F2010398420BD044F60003C4F2DF
:104C70000103984205D044F20043C4F20103984274
:104C800004D1CB6825F4407243EA02050A688C68B7
:104C90004B69C46240F480648262644504BF096960
:104CA0000163026825F0800142F0040219430260AA
:104CB000012242610160B0BD10B582B040F264745F
:104CC000C2F200042046FBF7C9FF2046FCF7B8FEFD
:104CD00020460221FCF7D0FA41F2084040F6DC41C0
:104CE0000022C2F20000C2F20001C4F2020210234C
:104CF000FEF7DEFF40F69444C2F2000420681E2254
:104D0000C16841F01001C16045F21831C2F20001E2
:104D10002046FDF7BFFEE06B0068016821F0080146
:104D2000016001F081F940F2F82C43F6D170C2F233
:104D3000000C0324C0F6000016A14FF4C872002333
:104D4000CDE9004C02F0CAFA40F2F41C41F24D00E9
:104D5000C2F2000CC0F6000010A14FF49C720023B8
:104D6000CDE9004C02F0BAFA40F2F01C40F6CD005A
:104D7000C2F2000CC0F600000CA14FF4C872002370
:104D8000CDE9004C02F0AAFA02B0BDE8104001F0F3
:104D90006FB900BF52656D6F74650000436F6E742C
:104DA000726F6C5F52656D6F7465000042616C6C70
:104DB0005F6261636B00000040F64C40C2F200008D
:104DC000FDF7F8BF40F69440C2F20000FDF7F2BFD5
:104DD000806B0021C185FDF743BF0000806B016837
:104DE000496990F84120212A11D111F080010ED09B
:104DF0000021C184016851E8031F026821F0C0014D
:104E000042E80313002BF5D1202180F841100168FE
:104E1000496990F84220222A2BD111F0400128D074
:104E20000021C185016851E8031F026821F49071D7
:104E300042E80313002BF5D1016851E8051F026811
:104E400021F0010142E80513002BF5D1016B012986
:104E50000AD100BF016851E8031F026821F0100168
:104E600042E80313002BF5D1202180F842100021E5
:104E70000163416C41F010014164FDF7F1BE000097
:104E80000168806B0968C90530D40021C18500BF65
:104E9000016851E8031F026821F4807142E803139E
:104EA000002BF5D1016851E8051F026821F00101CE
:104EB00042E80513002BF5D1016851E8051F02688F
:104EC00021F0400142E80513002BF5D1202180F8A4
:104ED0004210016B012909D1016851E8031F0268E2
:104EE00021F0100142E80313002BF5D100214163AA
:104EF000016B012918BFFEF775BB818DFDF7FEBD63
:104F0000806B01214163016B012918BFFEF76CBB67
:104F1000818D4908FDF7F2BD0168806B0968C905FC
:104F200048BFFEF7ADBB0021C18400BF016851E856
:104F3000051F026821F0800142E80513002BF5D11E
:104F4000016851E8031F026841F0400142E8031381
:104F5000002BF5D170470000806BFEF7A3BB00006B
:104F600090F84210222918BF70478268B2F5805F1E
:104F700002D1016900294AD0816AB2F5805F07D069
:104F80000AB9026922B10268526802F07F0201E0A8
:104F9000026852680A70816A01318162C18D0139EB
:104FA0000A04C18500D070470168CA6822F0200257
:104FB000CA60CA6822F48072CA604A6922F001029B
:104FC0004A61202180F8421000214163026B012ACE
:104FD00018BFFEF707BB81B0016300BF016851E84D
:104FE000031F026821F0100142E80313002BF5D1E2
:104FF00001680A68D20606D5002200920A6800926B
:10500000496800910099818D01B0FDF777BD016875
:10501000826A49686FF35F2122F8021B8262BDE752
:10502000B0B50446006804F108030ECB05691943C6
:1050300025F440552A4302616269E3691143C2685D
:10504000194349F20C639A431143C1604169A26953
:1050500021F4407141F20043114340F48062C4F2F4
:1050600001039A42416102D1FDF7DCF901E0FDF74D
:10507000C5F9E1694FF69C7563681922C0F6FF75A2
:10508000B1F5004FA0FB02011CD15A00DB0FFBF76A
:105090006BF948F21F51C5F2EB11A0FB01235A092D
:1050A00005F1805302FB0300322303EBC000A0FB99
:1050B00001014FF4F87000EA111000EB0210C1F387
:1050C000421118E09A009B0FFBF74EF948F21F516E
:1050D000C5F2EB11A0FB01235A0902FB05003223A4
:1050E00003EB0010A0FB0101F02000EA511000EBDF
:1050F0000210C1F34311084421688860B0BD00006C
:10510000F0B581B013460027044681628385476469
:10511000222084F84200E06B44F6816544F6017673
:105120000A462168C0F60005C0F60006C0E90F5621
:1051300044F6DD56C0F600060431C0E91367FCF7FB
:1051400071FE38B110206064202084F842000120F4
:1051500001B0F0BD009720680168009140680090A0
:105160000098206950B100BF206850E8030F216803
:1051700040F4807041E80302002AF5D1206850E82D
:10518000050F216840F0010041E80502002AF5D131
:10519000206850E8050F216840F0400041E8050212
:1051A000002AF5D1002001B0F0BD000040F6BC306F
:1051B000C2F20000FDF7FEBD40F60440C2F200005E
:1051C000FDF7F8BD40F6DC40C2F20000FDF7F2BD8D
:1051D000FEE70000000000002DE9F04107680968C3
:1051E0003F68B9423AD14168D7B28F4236D16FF0A9
:1051F000080151FA92F2122A4FF0000100F2C28027
:10520000DFE802F00AC0C0C0C04F2F6FC0C0C0C0EE
:10521000C0C0C0C0C0C0A9001968044609BA8160F6
:1052200099881D46C9BA084602F056FD9FED580BF5
:1052300053EC102B02F068FD02F0C0FBE060E88840
:105240002646C0BA02F048FD9FED570B53EC102BD9
:1052500002F05AFD41EC100B10248DE00020BDE857
:10526000F0811968074609BA0846984602F034FDED
:105270009FED4B0B54EC105B2A46234602F044FD95
:1052800002F09CFBF861D8F804003E4600BA02F038
:1052900023FD2A46234602F037FD41EC100B202463
:1052A0006AE01968074609BA0846984602F014FDF4
:1052B0009FED3B0B54EC105B2A46234602F024FD85
:1052C00002F07CFB7861D8F804003E4600BA02F098
:1052D00003FD2A46234602F017FD41EC100B18246B
:1052E0004AE019880746C9BA0846984602F0F4FC15
:1052F0009FED270B54EC105B2A46234602F004FD79
:1053000002F05CFB7862B8F80200C0BA02F0E4FC7C
:105310002A46234602F0F8FC02F050FBB862B8F8C7
:105320000400C0BA02F0D8FC2A46234602F0ECFC86
:1053300002F044FBF862B8F806003E46C0BA02F03C
:10534000CBFC9FED150B53EC102B02F0DDFC41EC78
:10535000100B382410E01968064609BA4163988892
:10536000C0BA02F0B9FC9FED0A0B53EC102B02F00F
:10537000CBFC41EC100B302451EC100B02F01EFB67
:10538000012130510846BDE8F08100BF00BF00BFD9
:105390009A9999999999B93F7B14AE47E17A943FCC
:1053A0002D431CEBE2361A3FFCA9F1D24D62503F6F
:1053B00080B588B09FED141A002220EE010ABDEEE0
:1053C000C00A10EE101A0592D0E9000302928DF87F
:1053D0001C200A0E8DF804200A0C4FF0040C43F434
:1053E00080738DF805200A0ACDE9033C8DF806206C
:1053F0008DF8071002A901AA6B46CDF818C0FBF77B
:105400004FFF08B080BD00BF00007A44FCF744FEA7
:10541000FFF758FBFEF74CFAFEF7C0F9FEF77EF9EE
:10542000FEF79CF9FEF7E6FAFEF720FBFEF7A6FA78
:10543000FEF7C2FAFEF7FCFA00F016F8FEF71CFAC7
:1054400000F026F8FEE70000EFF3058100291CBFFD
:105450006FF005007047002804BF0020704780B53A
:1054600000F032FF002080BDEFF3058000281CBF54
:105470006FF00500704740F2FC10C2F200000168B6
:10548000002911BF4FF0FF3001210160002070475B
:10549000EFF3058000281CBF6FF00500704740F255
:1054A000FC10C2F20000016801291CBF4FF0FF3060
:1054B000704780B54EF61F51CEF2000100220A70EF
:1054C0000221016001F062F9002080BD70B584B056
:1054D0000B46002100280391EFF3058150D00029ED
:1054E0004ED142B3D2F818E0BEF1000F08BF4FF022
:1054F000180EBEF1380F1BD81179C90718D155699C
:10550000946811684FEA950C002D08BF4FF0800C8D
:1055100044B1D6685C2E04D31669002E18BF002D46
:1055200020D10CB9D468C4B1002500245DB91DE0B8
:10553000002004B070BD012400214FF0180E4FF080
:10554000800C002595B1946812690294CDE900E2BF
:10555000624601F031FF039012E01469B4FA84F45A
:105560006409EEE700240125002DECD144B103AC21
:105570001FFA8CF2CDE900E401F0B0FE012802D15F
:10558000039804B070BD0020E5E700002DE9F04766
:10559000044600F049FD45F23C30C2F200000168CB
:1055A00040F6506701310160C2F20007396845F6E4
:1055B000E82A40F66866C2F2000AC2F2000651B15B
:1055C000DAF8000000283ED13868E16AC06A8842F3
:1055D00098BF3C6037E03C600068012833D100256B
:1055E000701900F0DBFC1435B5F58C6FF8D145F679
:1055F0004C28C2F20008404600F0D0FC45F6602975
:10560000C2F20009484600F0C9FC45F69420C2F2F7
:10561000000000F0C3FC45F60830C2F2000000F0C4
:10562000BDFC45F6F420C2F2000000F0B7FC40F6E5
:105630005860C2F20000C0F8008040F66060C2F21C
:105640000000C0F8009045F24830C2F20000016846
:1056500001310160616445F24C31C2F20001E06A3F
:105660000A68904288BF086000EB800006EB80006B
:10567000211D00F0C1FC00F0FBFCDAF8000088B14D
:105680003868E16AC06A884228BFBDE8F0874EF6F4
:105690000450CEF200004FF080510160BFF34F8FF5
:1056A000BFF36F8FBDE8F08770B582B000F0BCFC2F
:1056B00045F62036C2F20006306850BB45F620247D
:1056C000C2F20004204600F069FC45F63425C2F21F
:1056D0000005284600F062FC40F65460C2F200006B
:1056E000046040F66460C2F2000040F65A5240F690
:1056F000FC5305600025C2F20002C2F200030A203A
:105700001021009501F010FA306010B103A100F0F3
:105710007FFD02B0BDE8704000F0AABC546D72512C
:105720000000000045F2403540F6686A4EF6045825
:1057300045F6083745F23C36C2F20005C2F2000ACF
:10574000CEF200084FF08059C2F20007C2F2000604
:1057500003E000BF204600F0A3FC2868C8B100F0B9
:1057600063FCF868C468201D00F0EAFB306801386B
:10577000306028680138286000F07AFC94F85900FD
:105780000228EAD00128E5D070B9206B00F088FC2F
:10579000E0E7DAF800000228DFD3C8F80090BFF392
:1057A0004F8FBFF36F8FD8E74FF0500080F3118811
:1057B000BFF36F8FBFF34F8FFEE70000084800680C
:1057C000006880F308884FF0000080F3148862B608
:1057D00061B6BFF34F8FBFF36F8F00DF00BF0000D4
:1057E00008ED00E02DE9F04F85B0824601F074FE2F
:1057F00040F64C69C2F20009D9F80010054688420B
:1058000049D240F65464C2F20004206801680029BD
:1058100043D045F6203BC2F2000B08E078602068D8
:1058200031463F6100F0CAFB20680168A9B3C06837
:10583000C768D0F800803E1D304600F081FB396A11
:105840003846884797F828004007EDD5B8694044A6
:105850004045E3D88FB3DBF8000078B10020CDE9F4
:105860000108039701F024FEDBF8000001A90022E3
:10587000002301F0C7F90028D6D102E0002000285B
:10588000D2D14FF0500080F31188BFF36F8FBFF378
:105890004F8F00BFFEE7002007E040F66461C2F2D0
:1058A00000010A68086001202260CAF8000028464A
:1058B000C9F8005005B0BDE8F08F4FF0500080F3FC
:1058C0001188BFF36F8FBFF34F8F00BFFEE700005B
:1058D00081B00020009040F28C10C2F200000068FD
:1058E0004FF0500181F31188BFF36F8FBFF34F8FDB
:1058F000013001D0FEE700BF00980028FCD001B0C5
:10590000704700008AB040F6546B40F6646A45F672
:105910002035C2F2000B02ACC2F2000AC2F200054E
:105920000DF10409DBF8000007681FB1C068D0F86A
:10593000008001E04FF0000800F07AFF2046FFF7FA
:1059400051FF029911B101F065FF83E0E7B1804595
:105950001AD85646824601F05DFFDBF80000C068A9
:10596000C76807F1040B584600F0EAFA97F82800D8
:1059700041070CD440F6546B00F0FA00C2F2000B61
:1059800087F82800B2465CE0B7B100221AE0B96996
:105990003F6101EB08005045786029D9C24501D22A
:1059A000404533D240F65462C2F2000210685946B4
:1059B000934600F003FBE5E7DAF800100968B1FA56
:1059C00081F14A092B68A8EB0001184600F058FC49
:1059D00001F020FF00283DD14EF60450CEF2000029
:1059E0004FF080510160BFF34F8FBFF36F8F31E0F5
:1059F000AAEB0800884209D230685946B24600F046
:105A0000DDFA40F6546BC2F2000B1AE0002F00F0F2
:105A1000C2802868B24660B10020CDE90608089728
:105A200001F046FD286806A90022002301F0EAF8EB
:105A300000E0002040F6546BC2F2000B002800F09A
:105A4000B480396A3846884704E0DBF8000000F08B
:105A5000B5FA00BF28682146002201F039FA002873
:105A60003FF460AF0298B0F1FF3F03DCDDE90320B3
:105A70000599904702980028ECD4049F786910B1EA
:105A8000381D00F05DFA4846FFF7ACFE029909297F
:105A9000E0D8DFE801F00505054F395605054F3917
:105AA00097F82810039ABE6941F0010187F8281081
:105AB000B318394641F8043F83423F6104D990420C
:105AC000C3D2934203D2C0E7801AB0422DD3396AC1
:105AD0003846884797F828004007BBD5002F50D09C
